{
	"contracts/MerkleDistributor.sol": {
		"MerkleDistributor": {
			"abi": [
				{
					"inputs": [
						{
							"internalType": "address",
							"name": "token_",
							"type": "address"
						},
						{
							"internalType": "bytes32",
							"name": "merkleRoot_",
							"type": "bytes32"
						}
					],
					"stateMutability": "nonpayable",
					"type": "constructor"
				},
				{
					"inputs": [
						{
							"internalType": "address",
							"name": "target",
							"type": "address"
						}
					],
					"name": "AddressEmptyCode",
					"type": "error"
				},
				{
					"inputs": [
						{
							"internalType": "address",
							"name": "account",
							"type": "address"
						}
					],
					"name": "AddressInsufficientBalance",
					"type": "error"
				},
				{
					"inputs": [],
					"name": "AlreadyClaimed",
					"type": "error"
				},
				{
					"inputs": [],
					"name": "FailedInnerCall",
					"type": "error"
				},
				{
					"inputs": [],
					"name": "InvalidProof",
					"type": "error"
				},
				{
					"inputs": [
						{
							"internalType": "address",
							"name": "token",
							"type": "address"
						}
					],
					"name": "SafeERC20FailedOperation",
					"type": "error"
				},
				{
					"anonymous": false,
					"inputs": [
						{
							"indexed": false,
							"internalType": "uint256",
							"name": "index",
							"type": "uint256"
						},
						{
							"indexed": false,
							"internalType": "address",
							"name": "account",
							"type": "address"
						},
						{
							"indexed": false,
							"internalType": "uint256",
							"name": "amount",
							"type": "uint256"
						}
					],
					"name": "Claimed",
					"type": "event"
				},
				{
					"inputs": [
						{
							"internalType": "uint256",
							"name": "index",
							"type": "uint256"
						},
						{
							"internalType": "address",
							"name": "account",
							"type": "address"
						},
						{
							"internalType": "uint256",
							"name": "amount",
							"type": "uint256"
						},
						{
							"internalType": "bytes32[]",
							"name": "merkleProof",
							"type": "bytes32[]"
						}
					],
					"name": "claim",
					"outputs": [],
					"stateMutability": "nonpayable",
					"type": "function"
				},
				{
					"inputs": [
						{
							"internalType": "uint256",
							"name": "index",
							"type": "uint256"
						}
					],
					"name": "isClaimed",
					"outputs": [
						{
							"internalType": "bool",
							"name": "",
							"type": "bool"
						}
					],
					"stateMutability": "view",
					"type": "function"
				},
				{
					"inputs": [],
					"name": "merkleRoot",
					"outputs": [
						{
							"internalType": "bytes32",
							"name": "",
							"type": "bytes32"
						}
					],
					"stateMutability": "view",
					"type": "function"
				},
				{
					"inputs": [],
					"name": "token",
					"outputs": [
						{
							"internalType": "address",
							"name": "",
							"type": "address"
						}
					],
					"stateMutability": "view",
					"type": "function"
				}
			],
			"devdoc": {
				"errors": {
					"AddressEmptyCode(address)": [
						{
							"details": "There's no code at `target` (it is not a contract)."
						}
					],
					"AddressInsufficientBalance(address)": [
						{
							"details": "The ETH balance of the account is not enough to perform the operation."
						}
					],
					"FailedInnerCall()": [
						{
							"details": "A call to an address target failed. The target may have reverted."
						}
					],
					"SafeERC20FailedOperation(address)": [
						{
							"details": "An operation with an ERC20 token failed."
						}
					]
				},
				"kind": "dev",
				"methods": {},
				"version": 1
			},
			"evm": {
				"assembly": "    /* \"contracts/MerkleDistributor.sol\":359:1932  contract MerkleDistributor is IMerkleDistributor {... */\n  mstore(0x40, 0xc0)\n    /* \"contracts/MerkleDistributor.sol\":642:756  constructor(address token_, bytes32 merkleRoot_) {... */\n  callvalue\n  dup1\n  iszero\n  tag_1\n  jumpi\n  0x00\n  dup1\n  revert\ntag_1:\n  pop\n  mload(0x40)\n  sub(codesize, bytecodeSize)\n  dup1\n  bytecodeSize\n  dup4\n  codecopy\n  dup2\n  dup2\n  add\n  0x40\n  mstore\n  dup2\n  add\n  swap1\n  tag_2\n  swap2\n  swap1\n  tag_3\n  jump\t// in\ntag_2:\n    /* \"contracts/MerkleDistributor.sol\":709:715  token_ */\n  dup2\n    /* \"contracts/MerkleDistributor.sol\":701:715  token = token_ */\n  0xffffffffffffffffffffffffffffffffffffffff\n  and\n  0x80\n  dup2\n  0xffffffffffffffffffffffffffffffffffffffff\n  and\n  dup2\n  mstore\n  pop\n  pop\n    /* \"contracts/MerkleDistributor.sol\":738:749  merkleRoot_ */\n  dup1\n    /* \"contracts/MerkleDistributor.sol\":725:749  merkleRoot = merkleRoot_ */\n  0xa0\n  dup2\n  dup2\n  mstore\n  pop\n  pop\n    /* \"contracts/MerkleDistributor.sol\":642:756  constructor(address token_, bytes32 merkleRoot_) {... */\n  pop\n  pop\n    /* \"contracts/MerkleDistributor.sol\":359:1932  contract MerkleDistributor is IMerkleDistributor {... */\n  jump(tag_6)\n    /* \"#utility.yul\":88:205   */\ntag_8:\n    /* \"#utility.yul\":197:198   */\n  0x00\n    /* \"#utility.yul\":194:195   */\n  dup1\n    /* \"#utility.yul\":187:199   */\n  revert\n    /* \"#utility.yul\":334:460   */\ntag_10:\n    /* \"#utility.yul\":371:378   */\n  0x00\n    /* \"#utility.yul\":411:453   */\n  0xffffffffffffffffffffffffffffffffffffffff\n    /* \"#utility.yul\":404:409   */\n  dup3\n    /* \"#utility.yul\":400:454   */\n  and\n    /* \"#utility.yul\":389:454   */\n  swap1\n  pop\n    /* \"#utility.yul\":334:460   */\n  swap2\n  swap1\n  pop\n  jump\t// out\n    /* \"#utility.yul\":466:562   */\ntag_11:\n    /* \"#utility.yul\":503:510   */\n  0x00\n    /* \"#utility.yul\":532:556   */\n  tag_23\n    /* \"#utility.yul\":550:555   */\n  dup3\n    /* \"#utility.yul\":532:556   */\n  tag_10\n  jump\t// in\ntag_23:\n    /* \"#utility.yul\":521:556   */\n  swap1\n  pop\n    /* \"#utility.yul\":466:562   */\n  swap2\n  swap1\n  pop\n  jump\t// out\n    /* \"#utility.yul\":568:690   */\ntag_12:\n    /* \"#utility.yul\":641:665   */\n  tag_25\n    /* \"#utility.yul\":659:664   */\n  dup2\n    /* \"#utility.yul\":641:665   */\n  tag_11\n  jump\t// in\ntag_25:\n    /* \"#utility.yul\":634:639   */\n  dup2\n    /* \"#utility.yul\":631:666   */\n  eq\n    /* \"#utility.yul\":621:684   */\n  tag_26\n  jumpi\n    /* \"#utility.yul\":680:681   */\n  0x00\n    /* \"#utility.yul\":677:678   */\n  dup1\n    /* \"#utility.yul\":670:682   */\n  revert\n    /* \"#utility.yul\":621:684   */\ntag_26:\n    /* \"#utility.yul\":568:690   */\n  pop\n  jump\t// out\n    /* \"#utility.yul\":696:839   */\ntag_13:\n    /* \"#utility.yul\":753:758   */\n  0x00\n    /* \"#utility.yul\":784:790   */\n  dup2\n    /* \"#utility.yul\":778:791   */\n  mload\n    /* \"#utility.yul\":769:791   */\n  swap1\n  pop\n    /* \"#utility.yul\":800:833   */\n  tag_28\n    /* \"#utility.yul\":827:832   */\n  dup2\n    /* \"#utility.yul\":800:833   */\n  tag_12\n  jump\t// in\ntag_28:\n    /* \"#utility.yul\":696:839   */\n  swap3\n  swap2\n  pop\n  pop\n  jump\t// out\n    /* \"#utility.yul\":845:922   */\ntag_14:\n    /* \"#utility.yul\":882:889   */\n  0x00\n    /* \"#utility.yul\":911:916   */\n  dup2\n    /* \"#utility.yul\":900:916   */\n  swap1\n  pop\n    /* \"#utility.yul\":845:922   */\n  swap2\n  swap1\n  pop\n  jump\t// out\n    /* \"#utility.yul\":928:1050   */\ntag_15:\n    /* \"#utility.yul\":1001:1025   */\n  tag_31\n    /* \"#utility.yul\":1019:1024   */\n  dup2\n    /* \"#utility.yul\":1001:1025   */\n  tag_14\n  jump\t// in\ntag_31:\n    /* \"#utility.yul\":994:999   */\n  dup2\n    /* \"#utility.yul\":991:1026   */\n  eq\n    /* \"#utility.yul\":981:1044   */\n  tag_32\n  jumpi\n    /* \"#utility.yul\":1040:1041   */\n  0x00\n    /* \"#utility.yul\":1037:1038   */\n  dup1\n    /* \"#utility.yul\":1030:1042   */\n  revert\n    /* \"#utility.yul\":981:1044   */\ntag_32:\n    /* \"#utility.yul\":928:1050   */\n  pop\n  jump\t// out\n    /* \"#utility.yul\":1056:1199   */\ntag_16:\n    /* \"#utility.yul\":1113:1118   */\n  0x00\n    /* \"#utility.yul\":1144:1150   */\n  dup2\n    /* \"#utility.yul\":1138:1151   */\n  mload\n    /* \"#utility.yul\":1129:1151   */\n  swap1\n  pop\n    /* \"#utility.yul\":1160:1193   */\n  tag_34\n    /* \"#utility.yul\":1187:1192   */\n  dup2\n    /* \"#utility.yul\":1160:1193   */\n  tag_15\n  jump\t// in\ntag_34:\n    /* \"#utility.yul\":1056:1199   */\n  swap3\n  swap2\n  pop\n  pop\n  jump\t// out\n    /* \"#utility.yul\":1205:1712   */\ntag_3:\n    /* \"#utility.yul\":1284:1290   */\n  0x00\n    /* \"#utility.yul\":1292:1298   */\n  dup1\n    /* \"#utility.yul\":1341:1343   */\n  0x40\n    /* \"#utility.yul\":1329:1338   */\n  dup4\n    /* \"#utility.yul\":1320:1327   */\n  dup6\n    /* \"#utility.yul\":1316:1339   */\n  sub\n    /* \"#utility.yul\":1312:1344   */\n  slt\n    /* \"#utility.yul\":1309:1428   */\n  iszero\n  tag_36\n  jumpi\n    /* \"#utility.yul\":1347:1426   */\n  tag_37\n  tag_8\n  jump\t// in\ntag_37:\n    /* \"#utility.yul\":1309:1428   */\ntag_36:\n    /* \"#utility.yul\":1467:1468   */\n  0x00\n    /* \"#utility.yul\":1492:1556   */\n  tag_38\n    /* \"#utility.yul\":1548:1555   */\n  dup6\n    /* \"#utility.yul\":1539:1545   */\n  dup3\n    /* \"#utility.yul\":1528:1537   */\n  dup7\n    /* \"#utility.yul\":1524:1546   */\n  add\n    /* \"#utility.yul\":1492:1556   */\n  tag_13\n  jump\t// in\ntag_38:\n    /* \"#utility.yul\":1482:1556   */\n  swap3\n  pop\n    /* \"#utility.yul\":1438:1566   */\n  pop\n    /* \"#utility.yul\":1605:1607   */\n  0x20\n    /* \"#utility.yul\":1631:1695   */\n  tag_39\n    /* \"#utility.yul\":1687:1694   */\n  dup6\n    /* \"#utility.yul\":1678:1684   */\n  dup3\n    /* \"#utility.yul\":1667:1676   */\n  dup7\n    /* \"#utility.yul\":1663:1685   */\n  add\n    /* \"#utility.yul\":1631:1695   */\n  tag_16\n  jump\t// in\ntag_39:\n    /* \"#utility.yul\":1621:1695   */\n  swap2\n  pop\n    /* \"#utility.yul\":1576:1705   */\n  pop\n    /* \"#utility.yul\":1205:1712   */\n  swap3\n  pop\n  swap3\n  swap1\n  pop\n  jump\t// out\n    /* \"contracts/MerkleDistributor.sol\":359:1932  contract MerkleDistributor is IMerkleDistributor {... */\ntag_6:\n  mload(0x80)\n  mload(0xa0)\n  codecopy(0x00, dataOffset(sub_0), dataSize(sub_0))\n  0x00\n  assignImmutable(\"0x1b4842a19c661b7382881ce30aa723dedf4fd830b4353e3140588333c90c8c04\")\n  0x00\n  assignImmutable(\"0x4516631b00a1e700c877208dc45d467c587d8ed42d38e62c5d7291c12e98af66\")\n  return(0x00, dataSize(sub_0))\nstop\n\nsub_0: assembly {\n        /* \"contracts/MerkleDistributor.sol\":359:1932  contract MerkleDistributor is IMerkleDistributor {... */\n      mstore(0x40, 0x80)\n      callvalue\n      dup1\n      iszero\n      tag_1\n      jumpi\n      0x00\n      dup1\n      revert\n    tag_1:\n      pop\n      jumpi(tag_2, lt(calldatasize, 0x04))\n      shr(0xe0, calldataload(0x00))\n      dup1\n      0x2e7ba6ef\n      eq\n      tag_3\n      jumpi\n      dup1\n      0x2eb4a7ab\n      eq\n      tag_4\n      jumpi\n      dup1\n      0x9e34070f\n      eq\n      tag_5\n      jumpi\n      dup1\n      0xfc0c546a\n      eq\n      tag_6\n      jumpi\n    tag_2:\n      0x00\n      dup1\n      revert\n        /* \"contracts/MerkleDistributor.sol\":1345:1930  function claim(uint256 index, address account, uint256 amount, bytes32[] calldata merkleProof)... */\n    tag_3:\n      tag_7\n      0x04\n      dup1\n      calldatasize\n      sub\n      dup2\n      add\n      swap1\n      tag_8\n      swap2\n      swap1\n      tag_9\n      jump\t// in\n    tag_8:\n      tag_10\n      jump\t// in\n    tag_7:\n      stop\n        /* \"contracts/MerkleDistributor.sol\":492:536  bytes32 public immutable override merkleRoot */\n    tag_4:\n      tag_11\n      tag_12\n      jump\t// in\n    tag_11:\n      mload(0x40)\n      tag_13\n      swap2\n      swap1\n      tag_14\n      jump\t// in\n    tag_13:\n      mload(0x40)\n      dup1\n      swap2\n      sub\n      swap1\n      return\n        /* \"contracts/MerkleDistributor.sol\":762:1087  function isClaimed(uint256 index) public view override returns (bool) {... */\n    tag_5:\n      tag_15\n      0x04\n      dup1\n      calldatasize\n      sub\n      dup2\n      add\n      swap1\n      tag_16\n      swap2\n      swap1\n      tag_17\n      jump\t// in\n    tag_16:\n      tag_18\n      jump\t// in\n    tag_15:\n      mload(0x40)\n      tag_19\n      swap2\n      swap1\n      tag_20\n      jump\t// in\n    tag_19:\n      mload(0x40)\n      dup1\n      swap2\n      sub\n      swap1\n      return\n        /* \"contracts/MerkleDistributor.sol\":447:486  address public immutable override token */\n    tag_6:\n      tag_21\n      tag_22\n      jump\t// in\n    tag_21:\n      mload(0x40)\n      tag_23\n      swap2\n      swap1\n      tag_24\n      jump\t// in\n    tag_23:\n      mload(0x40)\n      dup1\n      swap2\n      sub\n      swap1\n      return\n        /* \"contracts/MerkleDistributor.sol\":1345:1930  function claim(uint256 index, address account, uint256 amount, bytes32[] calldata merkleProof)... */\n    tag_10:\n        /* \"contracts/MerkleDistributor.sol\":1506:1522  isClaimed(index) */\n      tag_26\n        /* \"contracts/MerkleDistributor.sol\":1516:1521  index */\n      dup6\n        /* \"contracts/MerkleDistributor.sol\":1506:1515  isClaimed */\n      tag_18\n        /* \"contracts/MerkleDistributor.sol\":1506:1522  isClaimed(index) */\n      jump\t// in\n    tag_26:\n        /* \"contracts/MerkleDistributor.sol\":1502:1547  if (isClaimed(index)) revert AlreadyClaimed() */\n      iszero\n      tag_27\n      jumpi\n        /* \"contracts/MerkleDistributor.sol\":1531:1547  AlreadyClaimed() */\n      mload(0x40)\n      0x646cf55800000000000000000000000000000000000000000000000000000000\n      dup2\n      mstore\n      0x04\n      add\n      mload(0x40)\n      dup1\n      swap2\n      sub\n      swap1\n      revert\n        /* \"contracts/MerkleDistributor.sol\":1502:1547  if (isClaimed(index)) revert AlreadyClaimed() */\n    tag_27:\n        /* \"contracts/MerkleDistributor.sol\":1594:1606  bytes32 node */\n      0x00\n        /* \"contracts/MerkleDistributor.sol\":1636:1641  index */\n      dup6\n        /* \"contracts/MerkleDistributor.sol\":1643:1650  account */\n      dup6\n        /* \"contracts/MerkleDistributor.sol\":1652:1658  amount */\n      dup6\n        /* \"contracts/MerkleDistributor.sol\":1619:1659  abi.encodePacked(index, account, amount) */\n      add(0x20, mload(0x40))\n      tag_28\n      swap4\n      swap3\n      swap2\n      swap1\n      tag_29\n      jump\t// in\n    tag_28:\n      mload(0x40)\n      0x20\n      dup2\n      dup4\n      sub\n      sub\n      dup2\n      mstore\n      swap1\n      0x40\n      mstore\n        /* \"contracts/MerkleDistributor.sol\":1609:1660  keccak256(abi.encodePacked(index, account, amount)) */\n      dup1\n      mload\n      swap1\n      0x20\n      add\n      keccak256\n        /* \"contracts/MerkleDistributor.sol\":1594:1660  bytes32 node = keccak256(abi.encodePacked(index, account, amount)) */\n      swap1\n      pop\n        /* \"contracts/MerkleDistributor.sol\":1675:1724  MerkleProof.verify(merkleProof, merkleRoot, node) */\n      tag_30\n        /* \"contracts/MerkleDistributor.sol\":1694:1705  merkleProof */\n      dup4\n      dup4\n        /* \"contracts/MerkleDistributor.sol\":1675:1724  MerkleProof.verify(merkleProof, merkleRoot, node) */\n      dup1\n      dup1\n      0x20\n      mul\n      0x20\n      add\n      mload(0x40)\n      swap1\n      dup2\n      add\n      0x40\n      mstore\n      dup1\n      swap4\n      swap3\n      swap2\n      swap1\n      dup2\n      dup2\n      mstore\n      0x20\n      add\n      dup4\n      dup4\n      0x20\n      mul\n      dup1\n      dup3\n      dup5\n      calldatacopy\n      0x00\n      dup2\n      dup5\n      add\n      mstore\n      not(0x1f)\n      0x1f\n      dup3\n      add\n      and\n      swap1\n      pop\n      dup1\n      dup4\n      add\n      swap3\n      pop\n      pop\n      pop\n      pop\n      pop\n      pop\n      pop\n        /* \"contracts/MerkleDistributor.sol\":1707:1717  merkleRoot */\n      immutable(\"0x1b4842a19c661b7382881ce30aa723dedf4fd830b4353e3140588333c90c8c04\")\n        /* \"contracts/MerkleDistributor.sol\":1719:1723  node */\n      dup4\n        /* \"contracts/MerkleDistributor.sol\":1675:1693  MerkleProof.verify */\n      tag_31\n        /* \"contracts/MerkleDistributor.sol\":1675:1724  MerkleProof.verify(merkleProof, merkleRoot, node) */\n      jump\t// in\n    tag_30:\n        /* \"contracts/MerkleDistributor.sol\":1670:1747  if (!MerkleProof.verify(merkleProof, merkleRoot, node)) revert InvalidProof() */\n      tag_32\n      jumpi\n        /* \"contracts/MerkleDistributor.sol\":1733:1747  InvalidProof() */\n      mload(0x40)\n      0x09bde33900000000000000000000000000000000000000000000000000000000\n      dup2\n      mstore\n      0x04\n      add\n      mload(0x40)\n      dup1\n      swap2\n      sub\n      swap1\n      revert\n        /* \"contracts/MerkleDistributor.sol\":1670:1747  if (!MerkleProof.verify(merkleProof, merkleRoot, node)) revert InvalidProof() */\n    tag_32:\n        /* \"contracts/MerkleDistributor.sol\":1805:1823  _setClaimed(index) */\n      tag_33\n        /* \"contracts/MerkleDistributor.sol\":1817:1822  index */\n      dup7\n        /* \"contracts/MerkleDistributor.sol\":1805:1816  _setClaimed */\n      tag_34\n        /* \"contracts/MerkleDistributor.sol\":1805:1823  _setClaimed(index) */\n      jump\t// in\n    tag_33:\n        /* \"contracts/MerkleDistributor.sol\":1833:1876  IERC20(token).safeTransfer(account, amount) */\n      tag_35\n        /* \"contracts/MerkleDistributor.sol\":1860:1867  account */\n      dup6\n        /* \"contracts/MerkleDistributor.sol\":1869:1875  amount */\n      dup6\n        /* \"contracts/MerkleDistributor.sol\":1840:1845  token */\n      immutable(\"0x4516631b00a1e700c877208dc45d467c587d8ed42d38e62c5d7291c12e98af66\")\n        /* \"contracts/MerkleDistributor.sol\":1833:1859  IERC20(token).safeTransfer */\n      0xffffffffffffffffffffffffffffffffffffffff\n      and\n      tag_36\n      swap1\n        /* \"contracts/MerkleDistributor.sol\":1833:1876  IERC20(token).safeTransfer(account, amount) */\n      swap3\n      swap2\n      swap1\n      0xffffffff\n      and\n      jump\t// in\n    tag_35:\n        /* \"contracts/MerkleDistributor.sol\":1892:1923  Claimed(index, account, amount) */\n      0x4ec90e965519d92681267467f775ada5bd214aa92c0dc93d90a5e880ce9ed026\n        /* \"contracts/MerkleDistributor.sol\":1900:1905  index */\n      dup7\n        /* \"contracts/MerkleDistributor.sol\":1907:1914  account */\n      dup7\n        /* \"contracts/MerkleDistributor.sol\":1916:1922  amount */\n      dup7\n        /* \"contracts/MerkleDistributor.sol\":1892:1923  Claimed(index, account, amount) */\n      mload(0x40)\n      tag_37\n      swap4\n      swap3\n      swap2\n      swap1\n      tag_38\n      jump\t// in\n    tag_37:\n      mload(0x40)\n      dup1\n      swap2\n      sub\n      swap1\n      log1\n        /* \"contracts/MerkleDistributor.sol\":1492:1930  {... */\n      pop\n        /* \"contracts/MerkleDistributor.sol\":1345:1930  function claim(uint256 index, address account, uint256 amount, bytes32[] calldata merkleProof)... */\n      pop\n      pop\n      pop\n      pop\n      pop\n      jump\t// out\n        /* \"contracts/MerkleDistributor.sol\":492:536  bytes32 public immutable override merkleRoot */\n    tag_12:\n      immutable(\"0x1b4842a19c661b7382881ce30aa723dedf4fd830b4353e3140588333c90c8c04\")\n      dup2\n      jump\t// out\n        /* \"contracts/MerkleDistributor.sol\":762:1087  function isClaimed(uint256 index) public view override returns (bool) {... */\n    tag_18:\n        /* \"contracts/MerkleDistributor.sol\":826:830  bool */\n      0x00\n        /* \"contracts/MerkleDistributor.sol\":842:866  uint256 claimedWordIndex */\n      dup1\n        /* \"contracts/MerkleDistributor.sol\":877:880  256 */\n      0x0100\n        /* \"contracts/MerkleDistributor.sol\":869:874  index */\n      dup4\n        /* \"contracts/MerkleDistributor.sol\":869:880  index / 256 */\n      tag_40\n      swap2\n      swap1\n      tag_41\n      jump\t// in\n    tag_40:\n        /* \"contracts/MerkleDistributor.sol\":842:880  uint256 claimedWordIndex = index / 256 */\n      swap1\n      pop\n        /* \"contracts/MerkleDistributor.sol\":890:913  uint256 claimedBitIndex */\n      0x00\n        /* \"contracts/MerkleDistributor.sol\":924:927  256 */\n      0x0100\n        /* \"contracts/MerkleDistributor.sol\":916:921  index */\n      dup5\n        /* \"contracts/MerkleDistributor.sol\":916:927  index % 256 */\n      tag_42\n      swap2\n      swap1\n      tag_43\n      jump\t// in\n    tag_42:\n        /* \"contracts/MerkleDistributor.sol\":890:927  uint256 claimedBitIndex = index % 256 */\n      swap1\n      pop\n        /* \"contracts/MerkleDistributor.sol\":937:956  uint256 claimedWord */\n      0x00\n        /* \"contracts/MerkleDistributor.sol\":959:972  claimedBitMap */\n      dup1\n        /* \"contracts/MerkleDistributor.sol\":959:990  claimedBitMap[claimedWordIndex] */\n      0x00\n        /* \"contracts/MerkleDistributor.sol\":973:989  claimedWordIndex */\n      dup5\n        /* \"contracts/MerkleDistributor.sol\":959:990  claimedBitMap[claimedWordIndex] */\n      dup2\n      mstore\n      0x20\n      add\n      swap1\n      dup2\n      mstore\n      0x20\n      add\n      0x00\n      keccak256\n      sload\n        /* \"contracts/MerkleDistributor.sol\":937:990  uint256 claimedWord = claimedBitMap[claimedWordIndex] */\n      swap1\n      pop\n        /* \"contracts/MerkleDistributor.sol\":1000:1012  uint256 mask */\n      0x00\n        /* \"contracts/MerkleDistributor.sol\":1021:1036  claimedBitIndex */\n      dup3\n        /* \"contracts/MerkleDistributor.sol\":1016:1017  1 */\n      0x01\n        /* \"contracts/MerkleDistributor.sol\":1016:1036  1 << claimedBitIndex */\n      swap1\n      shl\n        /* \"contracts/MerkleDistributor.sol\":1000:1037  uint256 mask = (1 << claimedBitIndex) */\n      swap1\n      pop\n        /* \"contracts/MerkleDistributor.sol\":1076:1080  mask */\n      dup1\n        /* \"contracts/MerkleDistributor.sol\":1068:1072  mask */\n      dup2\n        /* \"contracts/MerkleDistributor.sol\":1054:1065  claimedWord */\n      dup4\n        /* \"contracts/MerkleDistributor.sol\":1054:1072  claimedWord & mask */\n      and\n        /* \"contracts/MerkleDistributor.sol\":1054:1080  claimedWord & mask == mask */\n      eq\n        /* \"contracts/MerkleDistributor.sol\":1047:1080  return claimedWord & mask == mask */\n      swap5\n      pop\n      pop\n      pop\n      pop\n      pop\n        /* \"contracts/MerkleDistributor.sol\":762:1087  function isClaimed(uint256 index) public view override returns (bool) {... */\n      swap2\n      swap1\n      pop\n      jump\t// out\n        /* \"contracts/MerkleDistributor.sol\":447:486  address public immutable override token */\n    tag_22:\n      immutable(\"0x4516631b00a1e700c877208dc45d467c587d8ed42d38e62c5d7291c12e98af66\")\n      dup2\n      jump\t// out\n        /* \"@openzeppelin/contracts/utils/cryptography/MerkleProof.sol\":1265:1419  function verify(bytes32[] memory proof, bytes32 root, bytes32 leaf) internal pure returns (bool) {... */\n    tag_31:\n        /* \"@openzeppelin/contracts/utils/cryptography/MerkleProof.sol\":1356:1360  bool */\n      0x00\n        /* \"@openzeppelin/contracts/utils/cryptography/MerkleProof.sol\":1408:1412  root */\n      dup3\n        /* \"@openzeppelin/contracts/utils/cryptography/MerkleProof.sol\":1379:1404  processProof(proof, leaf) */\n      tag_45\n        /* \"@openzeppelin/contracts/utils/cryptography/MerkleProof.sol\":1392:1397  proof */\n      dup6\n        /* \"@openzeppelin/contracts/utils/cryptography/MerkleProof.sol\":1399:1403  leaf */\n      dup5\n        /* \"@openzeppelin/contracts/utils/cryptography/MerkleProof.sol\":1379:1391  processProof */\n      tag_46\n        /* \"@openzeppelin/contracts/utils/cryptography/MerkleProof.sol\":1379:1404  processProof(proof, leaf) */\n      jump\t// in\n    tag_45:\n        /* \"@openzeppelin/contracts/utils/cryptography/MerkleProof.sol\":1379:1412  processProof(proof, leaf) == root */\n      eq\n        /* \"@openzeppelin/contracts/utils/cryptography/MerkleProof.sol\":1372:1412  return processProof(proof, leaf) == root */\n      swap1\n      pop\n        /* \"@openzeppelin/contracts/utils/cryptography/MerkleProof.sol\":1265:1419  function verify(bytes32[] memory proof, bytes32 root, bytes32 leaf) internal pure returns (bool) {... */\n      swap4\n      swap3\n      pop\n      pop\n      pop\n      jump\t// out\n        /* \"contracts/MerkleDistributor.sol\":1093:1339  function _setClaimed(uint256 index) private {... */\n    tag_34:\n        /* \"contracts/MerkleDistributor.sol\":1147:1171  uint256 claimedWordIndex */\n      0x00\n        /* \"contracts/MerkleDistributor.sol\":1182:1185  256 */\n      0x0100\n        /* \"contracts/MerkleDistributor.sol\":1174:1179  index */\n      dup3\n        /* \"contracts/MerkleDistributor.sol\":1174:1185  index / 256 */\n      tag_48\n      swap2\n      swap1\n      tag_41\n      jump\t// in\n    tag_48:\n        /* \"contracts/MerkleDistributor.sol\":1147:1185  uint256 claimedWordIndex = index / 256 */\n      swap1\n      pop\n        /* \"contracts/MerkleDistributor.sol\":1195:1218  uint256 claimedBitIndex */\n      0x00\n        /* \"contracts/MerkleDistributor.sol\":1229:1232  256 */\n      0x0100\n        /* \"contracts/MerkleDistributor.sol\":1221:1226  index */\n      dup4\n        /* \"contracts/MerkleDistributor.sol\":1221:1232  index % 256 */\n      tag_49\n      swap2\n      swap1\n      tag_43\n      jump\t// in\n    tag_49:\n        /* \"contracts/MerkleDistributor.sol\":1195:1232  uint256 claimedBitIndex = index % 256 */\n      swap1\n      pop\n        /* \"contracts/MerkleDistributor.sol\":1316:1331  claimedBitIndex */\n      dup1\n        /* \"contracts/MerkleDistributor.sol\":1311:1312  1 */\n      0x01\n        /* \"contracts/MerkleDistributor.sol\":1311:1331  1 << claimedBitIndex */\n      swap1\n      shl\n        /* \"contracts/MerkleDistributor.sol\":1276:1289  claimedBitMap */\n      0x00\n        /* \"contracts/MerkleDistributor.sol\":1276:1307  claimedBitMap[claimedWordIndex] */\n      dup1\n        /* \"contracts/MerkleDistributor.sol\":1290:1306  claimedWordIndex */\n      dup5\n        /* \"contracts/MerkleDistributor.sol\":1276:1307  claimedBitMap[claimedWordIndex] */\n      dup2\n      mstore\n      0x20\n      add\n      swap1\n      dup2\n      mstore\n      0x20\n      add\n      0x00\n      keccak256\n      sload\n        /* \"contracts/MerkleDistributor.sol\":1276:1332  claimedBitMap[claimedWordIndex] | (1 << claimedBitIndex) */\n      or\n        /* \"contracts/MerkleDistributor.sol\":1242:1255  claimedBitMap */\n      0x00\n        /* \"contracts/MerkleDistributor.sol\":1242:1273  claimedBitMap[claimedWordIndex] */\n      dup1\n        /* \"contracts/MerkleDistributor.sol\":1256:1272  claimedWordIndex */\n      dup5\n        /* \"contracts/MerkleDistributor.sol\":1242:1273  claimedBitMap[claimedWordIndex] */\n      dup2\n      mstore\n      0x20\n      add\n      swap1\n      dup2\n      mstore\n      0x20\n      add\n      0x00\n      keccak256\n        /* \"contracts/MerkleDistributor.sol\":1242:1332  claimedBitMap[claimedWordIndex] = claimedBitMap[claimedWordIndex] | (1 << claimedBitIndex) */\n      dup2\n      swap1\n      sstore\n      pop\n        /* \"contracts/MerkleDistributor.sol\":1137:1339  {... */\n      pop\n      pop\n        /* \"contracts/MerkleDistributor.sol\":1093:1339  function _setClaimed(uint256 index) private {... */\n      pop\n      jump\t// out\n        /* \"@openzeppelin/contracts/token/ERC20/utils/SafeERC20.sol\":1303:1463  function safeTransfer(IERC20 token, address to, uint256 value) internal {... */\n    tag_36:\n        /* \"@openzeppelin/contracts/token/ERC20/utils/SafeERC20.sol\":1385:1456  _callOptionalReturn(token, abi.encodeCall(token.transfer, (to, value))) */\n      tag_51\n        /* \"@openzeppelin/contracts/token/ERC20/utils/SafeERC20.sol\":1405:1410  token */\n      dup4\n        /* \"@openzeppelin/contracts/token/ERC20/utils/SafeERC20.sol\":1427:1432  token */\n      dup5\n        /* \"@openzeppelin/contracts/token/ERC20/utils/SafeERC20.sol\":1427:1441  token.transfer */\n      0xffffffffffffffffffffffffffffffffffffffff\n      and\n      0xa9059cbb\n        /* \"@openzeppelin/contracts/token/ERC20/utils/SafeERC20.sol\":1444:1446  to */\n      dup6\n        /* \"@openzeppelin/contracts/token/ERC20/utils/SafeERC20.sol\":1448:1453  value */\n      dup6\n        /* \"@openzeppelin/contracts/token/ERC20/utils/SafeERC20.sol\":1412:1455  abi.encodeCall(token.transfer, (to, value)) */\n      add(0x24, mload(0x40))\n      tag_52\n      swap3\n      swap2\n      swap1\n      tag_53\n      jump\t// in\n    tag_52:\n      mload(0x40)\n      0x20\n      dup2\n      dup4\n      sub\n      sub\n      dup2\n      mstore\n      swap1\n      0x40\n      mstore\n      swap2\n      pop\n      0xe0\n      shl\n      0x20\n      dup3\n      add\n      dup1\n      mload\n      0xffffffffffffffffffffffffffffffffffffffffffffffffffffffff\n      dup4\n      dup2\n      dup4\n      and\n      or\n      dup4\n      mstore\n      pop\n      pop\n      pop\n      pop\n        /* \"@openzeppelin/contracts/token/ERC20/utils/SafeERC20.sol\":1385:1404  _callOptionalReturn */\n      tag_54\n        /* \"@openzeppelin/contracts/token/ERC20/utils/SafeERC20.sol\":1385:1456  _callOptionalReturn(token, abi.encodeCall(token.transfer, (to, value))) */\n      jump\t// in\n    tag_51:\n        /* \"@openzeppelin/contracts/token/ERC20/utils/SafeERC20.sol\":1303:1463  function safeTransfer(IERC20 token, address to, uint256 value) internal {... */\n      pop\n      pop\n      pop\n      jump\t// out\n        /* \"@openzeppelin/contracts/utils/cryptography/MerkleProof.sol\":1967:2257  function processProof(bytes32[] memory proof, bytes32 leaf) internal pure returns (bytes32) {... */\n    tag_46:\n        /* \"@openzeppelin/contracts/utils/cryptography/MerkleProof.sol\":2050:2057  bytes32 */\n      0x00\n        /* \"@openzeppelin/contracts/utils/cryptography/MerkleProof.sol\":2069:2089  bytes32 computedHash */\n      dup1\n        /* \"@openzeppelin/contracts/utils/cryptography/MerkleProof.sol\":2092:2096  leaf */\n      dup3\n        /* \"@openzeppelin/contracts/utils/cryptography/MerkleProof.sol\":2069:2096  bytes32 computedHash = leaf */\n      swap1\n      pop\n        /* \"@openzeppelin/contracts/utils/cryptography/MerkleProof.sol\":2111:2120  uint256 i */\n      0x00\n        /* \"@openzeppelin/contracts/utils/cryptography/MerkleProof.sol\":2106:2222  for (uint256 i = 0; i < proof.length; i++) {... */\n    tag_56:\n        /* \"@openzeppelin/contracts/utils/cryptography/MerkleProof.sol\":2130:2135  proof */\n      dup5\n        /* \"@openzeppelin/contracts/utils/cryptography/MerkleProof.sol\":2130:2142  proof.length */\n      mload\n        /* \"@openzeppelin/contracts/utils/cryptography/MerkleProof.sol\":2126:2127  i */\n      dup2\n        /* \"@openzeppelin/contracts/utils/cryptography/MerkleProof.sol\":2126:2142  i < proof.length */\n      lt\n        /* \"@openzeppelin/contracts/utils/cryptography/MerkleProof.sol\":2106:2222  for (uint256 i = 0; i < proof.length; i++) {... */\n      iszero\n      tag_57\n      jumpi\n        /* \"@openzeppelin/contracts/utils/cryptography/MerkleProof.sol\":2178:2211  _hashPair(computedHash, proof[i]) */\n      tag_59\n        /* \"@openzeppelin/contracts/utils/cryptography/MerkleProof.sol\":2188:2200  computedHash */\n      dup3\n        /* \"@openzeppelin/contracts/utils/cryptography/MerkleProof.sol\":2202:2207  proof */\n      dup7\n        /* \"@openzeppelin/contracts/utils/cryptography/MerkleProof.sol\":2208:2209  i */\n      dup4\n        /* \"@openzeppelin/contracts/utils/cryptography/MerkleProof.sol\":2202:2210  proof[i] */\n      dup2\n      mload\n      dup2\n      lt\n      tag_60\n      jumpi\n      tag_61\n      tag_62\n      jump\t// in\n    tag_61:\n    tag_60:\n      0x20\n      mul\n      0x20\n      add\n      add\n      mload\n        /* \"@openzeppelin/contracts/utils/cryptography/MerkleProof.sol\":2178:2187  _hashPair */\n      tag_63\n        /* \"@openzeppelin/contracts/utils/cryptography/MerkleProof.sol\":2178:2211  _hashPair(computedHash, proof[i]) */\n      jump\t// in\n    tag_59:\n        /* \"@openzeppelin/contracts/utils/cryptography/MerkleProof.sol\":2163:2211  computedHash = _hashPair(computedHash, proof[i]) */\n      swap2\n      pop\n        /* \"@openzeppelin/contracts/utils/cryptography/MerkleProof.sol\":2144:2147  i++ */\n      dup1\n      dup1\n      0x01\n      add\n      swap2\n      pop\n      pop\n        /* \"@openzeppelin/contracts/utils/cryptography/MerkleProof.sol\":2106:2222  for (uint256 i = 0; i < proof.length; i++) {... */\n      jump(tag_56)\n    tag_57:\n      pop\n        /* \"@openzeppelin/contracts/utils/cryptography/MerkleProof.sol\":2238:2250  computedHash */\n      dup1\n        /* \"@openzeppelin/contracts/utils/cryptography/MerkleProof.sol\":2231:2250  return computedHash */\n      swap2\n      pop\n      pop\n        /* \"@openzeppelin/contracts/utils/cryptography/MerkleProof.sol\":1967:2257  function processProof(bytes32[] memory proof, bytes32 leaf) internal pure returns (bytes32) {... */\n      swap3\n      swap2\n      pop\n      pop\n      jump\t// out\n        /* \"@openzeppelin/contracts/token/ERC20/utils/SafeERC20.sol\":4059:4688  function _callOptionalReturn(IERC20 token, bytes memory data) private {... */\n    tag_54:\n        /* \"@openzeppelin/contracts/token/ERC20/utils/SafeERC20.sol\":4478:4501  bytes memory returndata */\n      0x00\n        /* \"@openzeppelin/contracts/token/ERC20/utils/SafeERC20.sol\":4504:4537  address(token).functionCall(data) */\n      tag_65\n        /* \"@openzeppelin/contracts/token/ERC20/utils/SafeERC20.sol\":4532:4536  data */\n      dup3\n        /* \"@openzeppelin/contracts/token/ERC20/utils/SafeERC20.sol\":4512:4517  token */\n      dup5\n        /* \"@openzeppelin/contracts/token/ERC20/utils/SafeERC20.sol\":4504:4531  address(token).functionCall */\n      0xffffffffffffffffffffffffffffffffffffffff\n      and\n      tag_66\n      swap1\n        /* \"@openzeppelin/contracts/token/ERC20/utils/SafeERC20.sol\":4504:4537  address(token).functionCall(data) */\n      swap2\n      swap1\n      0xffffffff\n      and\n      jump\t// in\n    tag_65:\n        /* \"@openzeppelin/contracts/token/ERC20/utils/SafeERC20.sol\":4478:4537  bytes memory returndata = address(token).functionCall(data) */\n      swap1\n      pop\n        /* \"@openzeppelin/contracts/token/ERC20/utils/SafeERC20.sol\":4572:4573  0 */\n      0x00\n        /* \"@openzeppelin/contracts/token/ERC20/utils/SafeERC20.sol\":4551:4561  returndata */\n      dup2\n        /* \"@openzeppelin/contracts/token/ERC20/utils/SafeERC20.sol\":4551:4568  returndata.length */\n      mload\n        /* \"@openzeppelin/contracts/token/ERC20/utils/SafeERC20.sol\":4551:4573  returndata.length != 0 */\n      eq\n      iszero\n        /* \"@openzeppelin/contracts/token/ERC20/utils/SafeERC20.sol\":4551:4608  returndata.length != 0 && !abi.decode(returndata, (bool)) */\n      dup1\n      iszero\n      tag_67\n      jumpi\n      pop\n        /* \"@openzeppelin/contracts/token/ERC20/utils/SafeERC20.sol\":4589:4599  returndata */\n      dup1\n        /* \"@openzeppelin/contracts/token/ERC20/utils/SafeERC20.sol\":4578:4608  abi.decode(returndata, (bool)) */\n      dup1\n      0x20\n      add\n      swap1\n      mload\n      dup2\n      add\n      swap1\n      tag_68\n      swap2\n      swap1\n      tag_69\n      jump\t// in\n    tag_68:\n        /* \"@openzeppelin/contracts/token/ERC20/utils/SafeERC20.sol\":4577:4608  !abi.decode(returndata, (bool)) */\n      iszero\n        /* \"@openzeppelin/contracts/token/ERC20/utils/SafeERC20.sol\":4551:4608  returndata.length != 0 && !abi.decode(returndata, (bool)) */\n    tag_67:\n        /* \"@openzeppelin/contracts/token/ERC20/utils/SafeERC20.sol\":4547:4682  if (returndata.length != 0 && !abi.decode(returndata, (bool))) {... */\n      iszero\n      tag_70\n      jumpi\n        /* \"@openzeppelin/contracts/token/ERC20/utils/SafeERC20.sol\":4664:4669  token */\n      dup3\n        /* \"@openzeppelin/contracts/token/ERC20/utils/SafeERC20.sol\":4631:4671  SafeERC20FailedOperation(address(token)) */\n      mload(0x40)\n      0x5274afe700000000000000000000000000000000000000000000000000000000\n      dup2\n      mstore\n      0x04\n      add\n      tag_71\n      swap2\n      swap1\n      tag_24\n      jump\t// in\n    tag_71:\n      mload(0x40)\n      dup1\n      swap2\n      sub\n      swap1\n      revert\n        /* \"@openzeppelin/contracts/token/ERC20/utils/SafeERC20.sol\":4547:4682  if (returndata.length != 0 && !abi.decode(returndata, (bool))) {... */\n    tag_70:\n        /* \"@openzeppelin/contracts/token/ERC20/utils/SafeERC20.sol\":4129:4688  {... */\n      pop\n        /* \"@openzeppelin/contracts/token/ERC20/utils/SafeERC20.sol\":4059:4688  function _callOptionalReturn(IERC20 token, bytes memory data) private {... */\n      pop\n      pop\n      jump\t// out\n        /* \"@openzeppelin/contracts/utils/cryptography/MerkleProof.sol\":9229:9376  function _hashPair(bytes32 a, bytes32 b) private pure returns (bytes32) {... */\n    tag_63:\n        /* \"@openzeppelin/contracts/utils/cryptography/MerkleProof.sol\":9292:9299  bytes32 */\n      0x00\n        /* \"@openzeppelin/contracts/utils/cryptography/MerkleProof.sol\":9322:9323  b */\n      dup2\n        /* \"@openzeppelin/contracts/utils/cryptography/MerkleProof.sol\":9318:9319  a */\n      dup4\n        /* \"@openzeppelin/contracts/utils/cryptography/MerkleProof.sol\":9318:9323  a < b */\n      lt\n        /* \"@openzeppelin/contracts/utils/cryptography/MerkleProof.sol\":9318:9369  a < b ? _efficientHash(a, b) : _efficientHash(b, a) */\n      tag_73\n      jumpi\n        /* \"@openzeppelin/contracts/utils/cryptography/MerkleProof.sol\":9349:9369  _efficientHash(b, a) */\n      tag_74\n        /* \"@openzeppelin/contracts/utils/cryptography/MerkleProof.sol\":9364:9365  b */\n      dup3\n        /* \"@openzeppelin/contracts/utils/cryptography/MerkleProof.sol\":9367:9368  a */\n      dup5\n        /* \"@openzeppelin/contracts/utils/cryptography/MerkleProof.sol\":9349:9363  _efficientHash */\n      tag_75\n        /* \"@openzeppelin/contracts/utils/cryptography/MerkleProof.sol\":9349:9369  _efficientHash(b, a) */\n      jump\t// in\n    tag_74:\n        /* \"@openzeppelin/contracts/utils/cryptography/MerkleProof.sol\":9318:9369  a < b ? _efficientHash(a, b) : _efficientHash(b, a) */\n      jump(tag_76)\n    tag_73:\n        /* \"@openzeppelin/contracts/utils/cryptography/MerkleProof.sol\":9326:9346  _efficientHash(a, b) */\n      tag_77\n        /* \"@openzeppelin/contracts/utils/cryptography/MerkleProof.sol\":9341:9342  a */\n      dup4\n        /* \"@openzeppelin/contracts/utils/cryptography/MerkleProof.sol\":9344:9345  b */\n      dup4\n        /* \"@openzeppelin/contracts/utils/cryptography/MerkleProof.sol\":9326:9340  _efficientHash */\n      tag_75\n        /* \"@openzeppelin/contracts/utils/cryptography/MerkleProof.sol\":9326:9346  _efficientHash(a, b) */\n      jump\t// in\n    tag_77:\n        /* \"@openzeppelin/contracts/utils/cryptography/MerkleProof.sol\":9318:9369  a < b ? _efficientHash(a, b) : _efficientHash(b, a) */\n    tag_76:\n        /* \"@openzeppelin/contracts/utils/cryptography/MerkleProof.sol\":9311:9369  return a < b ? _efficientHash(a, b) : _efficientHash(b, a) */\n      swap1\n      pop\n        /* \"@openzeppelin/contracts/utils/cryptography/MerkleProof.sol\":9229:9376  function _hashPair(bytes32 a, bytes32 b) private pure returns (bytes32) {... */\n      swap3\n      swap2\n      pop\n      pop\n      jump\t// out\n        /* \"@openzeppelin/contracts/utils/Address.sol\":2705:2856  function functionCall(address target, bytes memory data) internal returns (bytes memory) {... */\n    tag_66:\n        /* \"@openzeppelin/contracts/utils/Address.sol\":2780:2792  bytes memory */\n      0x60\n        /* \"@openzeppelin/contracts/utils/Address.sol\":2811:2849  functionCallWithValue(target, data, 0) */\n      tag_79\n        /* \"@openzeppelin/contracts/utils/Address.sol\":2833:2839  target */\n      dup4\n        /* \"@openzeppelin/contracts/utils/Address.sol\":2841:2845  data */\n      dup4\n        /* \"@openzeppelin/contracts/utils/Address.sol\":2847:2848  0 */\n      0x00\n        /* \"@openzeppelin/contracts/utils/Address.sol\":2811:2832  functionCallWithValue */\n      tag_80\n        /* \"@openzeppelin/contracts/utils/Address.sol\":2811:2849  functionCallWithValue(target, data, 0) */\n      jump\t// in\n    tag_79:\n        /* \"@openzeppelin/contracts/utils/Address.sol\":2804:2849  return functionCallWithValue(target, data, 0) */\n      swap1\n      pop\n        /* \"@openzeppelin/contracts/utils/Address.sol\":2705:2856  function functionCall(address target, bytes memory data) internal returns (bytes memory) {... */\n      swap3\n      swap2\n      pop\n      pop\n      jump\t// out\n        /* \"@openzeppelin/contracts/utils/cryptography/MerkleProof.sol\":9496:9757  function _efficientHash(bytes32 a, bytes32 b) private pure returns (bytes32 value) {... */\n    tag_75:\n        /* \"@openzeppelin/contracts/utils/cryptography/MerkleProof.sol\":9564:9577  bytes32 value */\n      0x00\n        /* \"@openzeppelin/contracts/utils/cryptography/MerkleProof.sol\":9668:9669  a */\n      dup3\n        /* \"@openzeppelin/contracts/utils/cryptography/MerkleProof.sol\":9662:9666  0x00 */\n      0x00\n        /* \"@openzeppelin/contracts/utils/cryptography/MerkleProof.sol\":9655:9670  mstore(0x00, a) */\n      mstore\n        /* \"@openzeppelin/contracts/utils/cryptography/MerkleProof.sol\":9696:9697  b */\n      dup2\n        /* \"@openzeppelin/contracts/utils/cryptography/MerkleProof.sol\":9690:9694  0x20 */\n      0x20\n        /* \"@openzeppelin/contracts/utils/cryptography/MerkleProof.sol\":9683:9698  mstore(0x20, b) */\n      mstore\n        /* \"@openzeppelin/contracts/utils/cryptography/MerkleProof.sol\":9736:9740  0x40 */\n      0x40\n        /* \"@openzeppelin/contracts/utils/cryptography/MerkleProof.sol\":9730:9734  0x00 */\n      0x00\n        /* \"@openzeppelin/contracts/utils/cryptography/MerkleProof.sol\":9720:9741  keccak256(0x00, 0x40) */\n      keccak256\n        /* \"@openzeppelin/contracts/utils/cryptography/MerkleProof.sol\":9711:9741  value := keccak256(0x00, 0x40) */\n      swap1\n      pop\n        /* \"@openzeppelin/contracts/utils/cryptography/MerkleProof.sol\":9496:9757  function _efficientHash(bytes32 a, bytes32 b) private pure returns (bytes32 value) {... */\n      swap3\n      swap2\n      pop\n      pop\n      jump\t// out\n        /* \"@openzeppelin/contracts/utils/Address.sol\":3180:3572  function functionCallWithValue(address target, bytes memory data, uint256 value) internal returns (bytes memory) {... */\n    tag_80:\n        /* \"@openzeppelin/contracts/utils/Address.sol\":3279:3291  bytes memory */\n      0x60\n        /* \"@openzeppelin/contracts/utils/Address.sol\":3331:3336  value */\n      dup2\n        /* \"@openzeppelin/contracts/utils/Address.sol\":3307:3328  address(this).balance */\n      selfbalance\n        /* \"@openzeppelin/contracts/utils/Address.sol\":3307:3336  address(this).balance < value */\n      lt\n        /* \"@openzeppelin/contracts/utils/Address.sol\":3303:3411  if (address(this).balance < value) {... */\n      iszero\n      tag_83\n      jumpi\n        /* \"@openzeppelin/contracts/utils/Address.sol\":3394:3398  this */\n      address\n        /* \"@openzeppelin/contracts/utils/Address.sol\":3359:3400  AddressInsufficientBalance(address(this)) */\n      mload(0x40)\n      0xcd78605900000000000000000000000000000000000000000000000000000000\n      dup2\n      mstore\n      0x04\n      add\n      tag_84\n      swap2\n      swap1\n      tag_24\n      jump\t// in\n    tag_84:\n      mload(0x40)\n      dup1\n      swap2\n      sub\n      swap1\n      revert\n        /* \"@openzeppelin/contracts/utils/Address.sol\":3303:3411  if (address(this).balance < value) {... */\n    tag_83:\n        /* \"@openzeppelin/contracts/utils/Address.sol\":3421:3433  bool success */\n      0x00\n        /* \"@openzeppelin/contracts/utils/Address.sol\":3435:3458  bytes memory returndata */\n      dup1\n        /* \"@openzeppelin/contracts/utils/Address.sol\":3462:3468  target */\n      dup6\n        /* \"@openzeppelin/contracts/utils/Address.sol\":3462:3473  target.call */\n      0xffffffffffffffffffffffffffffffffffffffff\n      and\n        /* \"@openzeppelin/contracts/utils/Address.sol\":3481:3486  value */\n      dup5\n        /* \"@openzeppelin/contracts/utils/Address.sol\":3488:3492  data */\n      dup7\n        /* \"@openzeppelin/contracts/utils/Address.sol\":3462:3493  target.call{value: value}(data) */\n      mload(0x40)\n      tag_85\n      swap2\n      swap1\n      tag_86\n      jump\t// in\n    tag_85:\n      0x00\n      mload(0x40)\n      dup1\n      dup4\n      sub\n      dup2\n      dup6\n      dup8\n      gas\n      call\n      swap3\n      pop\n      pop\n      pop\n      returndatasize\n      dup1\n      0x00\n      dup2\n      eq\n      tag_89\n      jumpi\n      mload(0x40)\n      swap2\n      pop\n      and(add(returndatasize, 0x3f), not(0x1f))\n      dup3\n      add\n      0x40\n      mstore\n      returndatasize\n      dup3\n      mstore\n      returndatasize\n      0x00\n      0x20\n      dup5\n      add\n      returndatacopy\n      jump(tag_88)\n    tag_89:\n      0x60\n      swap2\n      pop\n    tag_88:\n      pop\n        /* \"@openzeppelin/contracts/utils/Address.sol\":3420:3493  (bool success, bytes memory returndata) = target.call{value: value}(data) */\n      swap2\n      pop\n      swap2\n      pop\n        /* \"@openzeppelin/contracts/utils/Address.sol\":3510:3565  verifyCallResultFromTarget(target, success, returndata) */\n      tag_90\n        /* \"@openzeppelin/contracts/utils/Address.sol\":3537:3543  target */\n      dup7\n        /* \"@openzeppelin/contracts/utils/Address.sol\":3545:3552  success */\n      dup4\n        /* \"@openzeppelin/contracts/utils/Address.sol\":3554:3564  returndata */\n      dup4\n        /* \"@openzeppelin/contracts/utils/Address.sol\":3510:3536  verifyCallResultFromTarget */\n      tag_91\n        /* \"@openzeppelin/contracts/utils/Address.sol\":3510:3565  verifyCallResultFromTarget(target, success, returndata) */\n      jump\t// in\n    tag_90:\n        /* \"@openzeppelin/contracts/utils/Address.sol\":3503:3565  return verifyCallResultFromTarget(target, success, returndata) */\n      swap3\n      pop\n      pop\n      pop\n        /* \"@openzeppelin/contracts/utils/Address.sol\":3180:3572  function functionCallWithValue(address target, bytes memory data, uint256 value) internal returns (bytes memory) {... */\n      swap4\n      swap3\n      pop\n      pop\n      pop\n      jump\t// out\n        /* \"@openzeppelin/contracts/utils/Address.sol\":4625:5207  function verifyCallResultFromTarget(... */\n    tag_91:\n        /* \"@openzeppelin/contracts/utils/Address.sol\":4769:4781  bytes memory */\n      0x60\n        /* \"@openzeppelin/contracts/utils/Address.sol\":4798:4805  success */\n      dup3\n        /* \"@openzeppelin/contracts/utils/Address.sol\":4793:5201  if (!success) {... */\n      tag_93\n      jumpi\n        /* \"@openzeppelin/contracts/utils/Address.sol\":4821:4840  _revert(returndata) */\n      tag_94\n        /* \"@openzeppelin/contracts/utils/Address.sol\":4829:4839  returndata */\n      dup3\n        /* \"@openzeppelin/contracts/utils/Address.sol\":4821:4828  _revert */\n      tag_95\n        /* \"@openzeppelin/contracts/utils/Address.sol\":4821:4840  _revert(returndata) */\n      jump\t// in\n    tag_94:\n        /* \"@openzeppelin/contracts/utils/Address.sol\":4793:5201  if (!success) {... */\n      jump(tag_96)\n    tag_93:\n        /* \"@openzeppelin/contracts/utils/Address.sol\":5066:5067  0 */\n      0x00\n        /* \"@openzeppelin/contracts/utils/Address.sol\":5045:5055  returndata */\n      dup3\n        /* \"@openzeppelin/contracts/utils/Address.sol\":5045:5062  returndata.length */\n      mload\n        /* \"@openzeppelin/contracts/utils/Address.sol\":5045:5067  returndata.length == 0 */\n      eq\n        /* \"@openzeppelin/contracts/utils/Address.sol\":5045:5094  returndata.length == 0 && target.code.length == 0 */\n      dup1\n      iszero\n      tag_97\n      jumpi\n      pop\n        /* \"@openzeppelin/contracts/utils/Address.sol\":5093:5094  0 */\n      0x00\n        /* \"@openzeppelin/contracts/utils/Address.sol\":5071:5077  target */\n      dup5\n        /* \"@openzeppelin/contracts/utils/Address.sol\":5071:5089  target.code.length */\n      0xffffffffffffffffffffffffffffffffffffffff\n      and\n      extcodesize\n        /* \"@openzeppelin/contracts/utils/Address.sol\":5071:5094  target.code.length == 0 */\n      eq\n        /* \"@openzeppelin/contracts/utils/Address.sol\":5045:5094  returndata.length == 0 && target.code.length == 0 */\n    tag_97:\n        /* \"@openzeppelin/contracts/utils/Address.sol\":5041:5160  if (returndata.length == 0 && target.code.length == 0) {... */\n      iszero\n      tag_98\n      jumpi\n        /* \"@openzeppelin/contracts/utils/Address.sol\":5138:5144  target */\n      dup4\n        /* \"@openzeppelin/contracts/utils/Address.sol\":5121:5145  AddressEmptyCode(target) */\n      mload(0x40)\n      0x9996b31500000000000000000000000000000000000000000000000000000000\n      dup2\n      mstore\n      0x04\n      add\n      tag_99\n      swap2\n      swap1\n      tag_24\n      jump\t// in\n    tag_99:\n      mload(0x40)\n      dup1\n      swap2\n      sub\n      swap1\n      revert\n        /* \"@openzeppelin/contracts/utils/Address.sol\":5041:5160  if (returndata.length == 0 && target.code.length == 0) {... */\n    tag_98:\n        /* \"@openzeppelin/contracts/utils/Address.sol\":5180:5190  returndata */\n      dup2\n        /* \"@openzeppelin/contracts/utils/Address.sol\":5173:5190  return returndata */\n      swap1\n      pop\n      jump(tag_92)\n        /* \"@openzeppelin/contracts/utils/Address.sol\":4793:5201  if (!success) {... */\n    tag_96:\n        /* \"@openzeppelin/contracts/utils/Address.sol\":4625:5207  function verifyCallResultFromTarget(... */\n    tag_92:\n      swap4\n      swap3\n      pop\n      pop\n      pop\n      jump\t// out\n        /* \"@openzeppelin/contracts/utils/Address.sol\":5743:6259  function _revert(bytes memory returndata) private pure {... */\n    tag_95:\n        /* \"@openzeppelin/contracts/utils/Address.sol\":5894:5895  0 */\n      0x00\n        /* \"@openzeppelin/contracts/utils/Address.sol\":5874:5884  returndata */\n      dup2\n        /* \"@openzeppelin/contracts/utils/Address.sol\":5874:5891  returndata.length */\n      mload\n        /* \"@openzeppelin/contracts/utils/Address.sol\":5874:5895  returndata.length > 0 */\n      gt\n        /* \"@openzeppelin/contracts/utils/Address.sol\":5870:6253  if (returndata.length > 0) {... */\n      iszero\n      tag_101\n      jumpi\n        /* \"@openzeppelin/contracts/utils/Address.sol\":6102:6112  returndata */\n      dup1\n        /* \"@openzeppelin/contracts/utils/Address.sol\":6096:6113  mload(returndata) */\n      mload\n        /* \"@openzeppelin/contracts/utils/Address.sol\":6158:6173  returndata_size */\n      dup1\n        /* \"@openzeppelin/contracts/utils/Address.sol\":6145:6155  returndata */\n      dup3\n        /* \"@openzeppelin/contracts/utils/Address.sol\":6141:6143  32 */\n      0x20\n        /* \"@openzeppelin/contracts/utils/Address.sol\":6137:6156  add(32, returndata) */\n      add\n        /* \"@openzeppelin/contracts/utils/Address.sol\":6130:6174  revert(add(32, returndata), returndata_size) */\n      revert\n        /* \"@openzeppelin/contracts/utils/Address.sol\":5870:6253  if (returndata.length > 0) {... */\n    tag_101:\n        /* \"@openzeppelin/contracts/utils/Address.sol\":6225:6242  FailedInnerCall() */\n      mload(0x40)\n      0x1425ea4200000000000000000000000000000000000000000000000000000000\n      dup2\n      mstore\n      0x04\n      add\n      mload(0x40)\n      dup1\n      swap2\n      sub\n      swap1\n      revert\n        /* \"#utility.yul\":88:205   */\n    tag_104:\n        /* \"#utility.yul\":197:198   */\n      0x00\n        /* \"#utility.yul\":194:195   */\n      dup1\n        /* \"#utility.yul\":187:199   */\n      revert\n        /* \"#utility.yul\":211:328   */\n    tag_105:\n        /* \"#utility.yul\":320:321   */\n      0x00\n        /* \"#utility.yul\":317:318   */\n      dup1\n        /* \"#utility.yul\":310:322   */\n      revert\n        /* \"#utility.yul\":334:411   */\n    tag_106:\n        /* \"#utility.yul\":371:378   */\n      0x00\n        /* \"#utility.yul\":400:405   */\n      dup2\n        /* \"#utility.yul\":389:405   */\n      swap1\n      pop\n        /* \"#utility.yul\":334:411   */\n      swap2\n      swap1\n      pop\n      jump\t// out\n        /* \"#utility.yul\":417:539   */\n    tag_107:\n        /* \"#utility.yul\":490:514   */\n      tag_143\n        /* \"#utility.yul\":508:513   */\n      dup2\n        /* \"#utility.yul\":490:514   */\n      tag_106\n      jump\t// in\n    tag_143:\n        /* \"#utility.yul\":483:488   */\n      dup2\n        /* \"#utility.yul\":480:515   */\n      eq\n        /* \"#utility.yul\":470:533   */\n      tag_144\n      jumpi\n        /* \"#utility.yul\":529:530   */\n      0x00\n        /* \"#utility.yul\":526:527   */\n      dup1\n        /* \"#utility.yul\":519:531   */\n      revert\n        /* \"#utility.yul\":470:533   */\n    tag_144:\n        /* \"#utility.yul\":417:539   */\n      pop\n      jump\t// out\n        /* \"#utility.yul\":545:684   */\n    tag_108:\n        /* \"#utility.yul\":591:596   */\n      0x00\n        /* \"#utility.yul\":629:635   */\n      dup2\n        /* \"#utility.yul\":616:636   */\n      calldataload\n        /* \"#utility.yul\":607:636   */\n      swap1\n      pop\n        /* \"#utility.yul\":645:678   */\n      tag_146\n        /* \"#utility.yul\":672:677   */\n      dup2\n        /* \"#utility.yul\":645:678   */\n      tag_107\n      jump\t// in\n    tag_146:\n        /* \"#utility.yul\":545:684   */\n      swap3\n      swap2\n      pop\n      pop\n      jump\t// out\n        /* \"#utility.yul\":690:816   */\n    tag_109:\n        /* \"#utility.yul\":727:734   */\n      0x00\n        /* \"#utility.yul\":767:809   */\n      0xffffffffffffffffffffffffffffffffffffffff\n        /* \"#utility.yul\":760:765   */\n      dup3\n        /* \"#utility.yul\":756:810   */\n      and\n        /* \"#utility.yul\":745:810   */\n      swap1\n      pop\n        /* \"#utility.yul\":690:816   */\n      swap2\n      swap1\n      pop\n      jump\t// out\n        /* \"#utility.yul\":822:918   */\n    tag_110:\n        /* \"#utility.yul\":859:866   */\n      0x00\n        /* \"#utility.yul\":888:912   */\n      tag_149\n        /* \"#utility.yul\":906:911   */\n      dup3\n        /* \"#utility.yul\":888:912   */\n      tag_109\n      jump\t// in\n    tag_149:\n        /* \"#utility.yul\":877:912   */\n      swap1\n      pop\n        /* \"#utility.yul\":822:918   */\n      swap2\n      swap1\n      pop\n      jump\t// out\n        /* \"#utility.yul\":924:1046   */\n    tag_111:\n        /* \"#utility.yul\":997:1021   */\n      tag_151\n        /* \"#utility.yul\":1015:1020   */\n      dup2\n        /* \"#utility.yul\":997:1021   */\n      tag_110\n      jump\t// in\n    tag_151:\n        /* \"#utility.yul\":990:995   */\n      dup2\n        /* \"#utility.yul\":987:1022   */\n      eq\n        /* \"#utility.yul\":977:1040   */\n      tag_152\n      jumpi\n        /* \"#utility.yul\":1036:1037   */\n      0x00\n        /* \"#utility.yul\":1033:1034   */\n      dup1\n        /* \"#utility.yul\":1026:1038   */\n      revert\n        /* \"#utility.yul\":977:1040   */\n    tag_152:\n        /* \"#utility.yul\":924:1046   */\n      pop\n      jump\t// out\n        /* \"#utility.yul\":1052:1191   */\n    tag_112:\n        /* \"#utility.yul\":1098:1103   */\n      0x00\n        /* \"#utility.yul\":1136:1142   */\n      dup2\n        /* \"#utility.yul\":1123:1143   */\n      calldataload\n        /* \"#utility.yul\":1114:1143   */\n      swap1\n      pop\n        /* \"#utility.yul\":1152:1185   */\n      tag_154\n        /* \"#utility.yul\":1179:1184   */\n      dup2\n        /* \"#utility.yul\":1152:1185   */\n      tag_111\n      jump\t// in\n    tag_154:\n        /* \"#utility.yul\":1052:1191   */\n      swap3\n      swap2\n      pop\n      pop\n      jump\t// out\n        /* \"#utility.yul\":1197:1314   */\n    tag_113:\n        /* \"#utility.yul\":1306:1307   */\n      0x00\n        /* \"#utility.yul\":1303:1304   */\n      dup1\n        /* \"#utility.yul\":1296:1308   */\n      revert\n        /* \"#utility.yul\":1320:1437   */\n    tag_114:\n        /* \"#utility.yul\":1429:1430   */\n      0x00\n        /* \"#utility.yul\":1426:1427   */\n      dup1\n        /* \"#utility.yul\":1419:1431   */\n      revert\n        /* \"#utility.yul\":1443:1560   */\n    tag_115:\n        /* \"#utility.yul\":1552:1553   */\n      0x00\n        /* \"#utility.yul\":1549:1550   */\n      dup1\n        /* \"#utility.yul\":1542:1554   */\n      revert\n        /* \"#utility.yul\":1583:2151   */\n    tag_116:\n        /* \"#utility.yul\":1656:1664   */\n      0x00\n        /* \"#utility.yul\":1666:1672   */\n      dup1\n        /* \"#utility.yul\":1716:1719   */\n      dup4\n        /* \"#utility.yul\":1709:1713   */\n      0x1f\n        /* \"#utility.yul\":1701:1707   */\n      dup5\n        /* \"#utility.yul\":1697:1714   */\n      add\n        /* \"#utility.yul\":1693:1720   */\n      slt\n        /* \"#utility.yul\":1683:1805   */\n      tag_159\n      jumpi\n        /* \"#utility.yul\":1724:1803   */\n      tag_160\n      tag_113\n      jump\t// in\n    tag_160:\n        /* \"#utility.yul\":1683:1805   */\n    tag_159:\n        /* \"#utility.yul\":1837:1843   */\n      dup3\n        /* \"#utility.yul\":1824:1844   */\n      calldataload\n        /* \"#utility.yul\":1814:1844   */\n      swap1\n      pop\n        /* \"#utility.yul\":1867:1885   */\n      0xffffffffffffffff\n        /* \"#utility.yul\":1859:1865   */\n      dup2\n        /* \"#utility.yul\":1856:1886   */\n      gt\n        /* \"#utility.yul\":1853:1970   */\n      iszero\n      tag_161\n      jumpi\n        /* \"#utility.yul\":1889:1968   */\n      tag_162\n      tag_114\n      jump\t// in\n    tag_162:\n        /* \"#utility.yul\":1853:1970   */\n    tag_161:\n        /* \"#utility.yul\":2003:2007   */\n      0x20\n        /* \"#utility.yul\":1995:2001   */\n      dup4\n        /* \"#utility.yul\":1991:2008   */\n      add\n        /* \"#utility.yul\":1979:2008   */\n      swap2\n      pop\n        /* \"#utility.yul\":2057:2060   */\n      dup4\n        /* \"#utility.yul\":2049:2053   */\n      0x20\n        /* \"#utility.yul\":2041:2047   */\n      dup3\n        /* \"#utility.yul\":2037:2054   */\n      mul\n        /* \"#utility.yul\":2027:2035   */\n      dup4\n        /* \"#utility.yul\":2023:2055   */\n      add\n        /* \"#utility.yul\":2020:2061   */\n      gt\n        /* \"#utility.yul\":2017:2145   */\n      iszero\n      tag_163\n      jumpi\n        /* \"#utility.yul\":2064:2143   */\n      tag_164\n      tag_115\n      jump\t// in\n    tag_164:\n        /* \"#utility.yul\":2017:2145   */\n    tag_163:\n        /* \"#utility.yul\":1583:2151   */\n      swap3\n      pop\n      swap3\n      swap1\n      pop\n      jump\t// out\n        /* \"#utility.yul\":2157:3152   */\n    tag_9:\n        /* \"#utility.yul\":2270:2276   */\n      0x00\n        /* \"#utility.yul\":2278:2284   */\n      dup1\n        /* \"#utility.yul\":2286:2292   */\n      0x00\n        /* \"#utility.yul\":2294:2300   */\n      dup1\n        /* \"#utility.yul\":2302:2308   */\n      0x00\n        /* \"#utility.yul\":2351:2354   */\n      0x80\n        /* \"#utility.yul\":2339:2348   */\n      dup7\n        /* \"#utility.yul\":2330:2337   */\n      dup9\n        /* \"#utility.yul\":2326:2349   */\n      sub\n        /* \"#utility.yul\":2322:2355   */\n      slt\n        /* \"#utility.yul\":2319:2439   */\n      iszero\n      tag_166\n      jumpi\n        /* \"#utility.yul\":2358:2437   */\n      tag_167\n      tag_104\n      jump\t// in\n    tag_167:\n        /* \"#utility.yul\":2319:2439   */\n    tag_166:\n        /* \"#utility.yul\":2478:2479   */\n      0x00\n        /* \"#utility.yul\":2503:2556   */\n      tag_168\n        /* \"#utility.yul\":2548:2555   */\n      dup9\n        /* \"#utility.yul\":2539:2545   */\n      dup3\n        /* \"#utility.yul\":2528:2537   */\n      dup10\n        /* \"#utility.yul\":2524:2546   */\n      add\n        /* \"#utility.yul\":2503:2556   */\n      tag_108\n      jump\t// in\n    tag_168:\n        /* \"#utility.yul\":2493:2556   */\n      swap6\n      pop\n        /* \"#utility.yul\":2449:2566   */\n      pop\n        /* \"#utility.yul\":2605:2607   */\n      0x20\n        /* \"#utility.yul\":2631:2684   */\n      tag_169\n        /* \"#utility.yul\":2676:2683   */\n      dup9\n        /* \"#utility.yul\":2667:2673   */\n      dup3\n        /* \"#utility.yul\":2656:2665   */\n      dup10\n        /* \"#utility.yul\":2652:2674   */\n      add\n        /* \"#utility.yul\":2631:2684   */\n      tag_112\n      jump\t// in\n    tag_169:\n        /* \"#utility.yul\":2621:2684   */\n      swap5\n      pop\n        /* \"#utility.yul\":2576:2694   */\n      pop\n        /* \"#utility.yul\":2733:2735   */\n      0x40\n        /* \"#utility.yul\":2759:2812   */\n      tag_170\n        /* \"#utility.yul\":2804:2811   */\n      dup9\n        /* \"#utility.yul\":2795:2801   */\n      dup3\n        /* \"#utility.yul\":2784:2793   */\n      dup10\n        /* \"#utility.yul\":2780:2802   */\n      add\n        /* \"#utility.yul\":2759:2812   */\n      tag_108\n      jump\t// in\n    tag_170:\n        /* \"#utility.yul\":2749:2812   */\n      swap4\n      pop\n        /* \"#utility.yul\":2704:2822   */\n      pop\n        /* \"#utility.yul\":2889:2891   */\n      0x60\n        /* \"#utility.yul\":2878:2887   */\n      dup7\n        /* \"#utility.yul\":2874:2892   */\n      add\n        /* \"#utility.yul\":2861:2893   */\n      calldataload\n        /* \"#utility.yul\":2920:2938   */\n      0xffffffffffffffff\n        /* \"#utility.yul\":2912:2918   */\n      dup2\n        /* \"#utility.yul\":2909:2939   */\n      gt\n        /* \"#utility.yul\":2906:3023   */\n      iszero\n      tag_171\n      jumpi\n        /* \"#utility.yul\":2942:3021   */\n      tag_172\n      tag_105\n      jump\t// in\n    tag_172:\n        /* \"#utility.yul\":2906:3023   */\n    tag_171:\n        /* \"#utility.yul\":3055:3135   */\n      tag_173\n        /* \"#utility.yul\":3127:3134   */\n      dup9\n        /* \"#utility.yul\":3118:3124   */\n      dup3\n        /* \"#utility.yul\":3107:3116   */\n      dup10\n        /* \"#utility.yul\":3103:3125   */\n      add\n        /* \"#utility.yul\":3055:3135   */\n      tag_116\n      jump\t// in\n    tag_173:\n        /* \"#utility.yul\":3037:3135   */\n      swap3\n      pop\n      swap3\n      pop\n        /* \"#utility.yul\":2832:3145   */\n      pop\n        /* \"#utility.yul\":2157:3152   */\n      swap3\n      swap6\n      pop\n      swap3\n      swap6\n      swap1\n      swap4\n      pop\n      jump\t// out\n        /* \"#utility.yul\":3158:3235   */\n    tag_117:\n        /* \"#utility.yul\":3195:3202   */\n      0x00\n        /* \"#utility.yul\":3224:3229   */\n      dup2\n        /* \"#utility.yul\":3213:3229   */\n      swap1\n      pop\n        /* \"#utility.yul\":3158:3235   */\n      swap2\n      swap1\n      pop\n      jump\t// out\n        /* \"#utility.yul\":3241:3359   */\n    tag_118:\n        /* \"#utility.yul\":3328:3352   */\n      tag_176\n        /* \"#utility.yul\":3346:3351   */\n      dup2\n        /* \"#utility.yul\":3328:3352   */\n      tag_117\n      jump\t// in\n    tag_176:\n        /* \"#utility.yul\":3323:3326   */\n      dup3\n        /* \"#utility.yul\":3316:3353   */\n      mstore\n        /* \"#utility.yul\":3241:3359   */\n      pop\n      pop\n      jump\t// out\n        /* \"#utility.yul\":3365:3587   */\n    tag_14:\n        /* \"#utility.yul\":3458:3462   */\n      0x00\n        /* \"#utility.yul\":3496:3498   */\n      0x20\n        /* \"#utility.yul\":3485:3494   */\n      dup3\n        /* \"#utility.yul\":3481:3499   */\n      add\n        /* \"#utility.yul\":3473:3499   */\n      swap1\n      pop\n        /* \"#utility.yul\":3509:3580   */\n      tag_178\n        /* \"#utility.yul\":3577:3578   */\n      0x00\n        /* \"#utility.yul\":3566:3575   */\n      dup4\n        /* \"#utility.yul\":3562:3579   */\n      add\n        /* \"#utility.yul\":3553:3559   */\n      dup5\n        /* \"#utility.yul\":3509:3580   */\n      tag_118\n      jump\t// in\n    tag_178:\n        /* \"#utility.yul\":3365:3587   */\n      swap3\n      swap2\n      pop\n      pop\n      jump\t// out\n        /* \"#utility.yul\":3593:3922   */\n    tag_17:\n        /* \"#utility.yul\":3652:3658   */\n      0x00\n        /* \"#utility.yul\":3701:3703   */\n      0x20\n        /* \"#utility.yul\":3689:3698   */\n      dup3\n        /* \"#utility.yul\":3680:3687   */\n      dup5\n        /* \"#utility.yul\":3676:3699   */\n      sub\n        /* \"#utility.yul\":3672:3704   */\n      slt\n        /* \"#utility.yul\":3669:3788   */\n      iszero\n      tag_180\n      jumpi\n        /* \"#utility.yul\":3707:3786   */\n      tag_181\n      tag_104\n      jump\t// in\n    tag_181:\n        /* \"#utility.yul\":3669:3788   */\n    tag_180:\n        /* \"#utility.yul\":3827:3828   */\n      0x00\n        /* \"#utility.yul\":3852:3905   */\n      tag_182\n        /* \"#utility.yul\":3897:3904   */\n      dup5\n        /* \"#utility.yul\":3888:3894   */\n      dup3\n        /* \"#utility.yul\":3877:3886   */\n      dup6\n        /* \"#utility.yul\":3873:3895   */\n      add\n        /* \"#utility.yul\":3852:3905   */\n      tag_108\n      jump\t// in\n    tag_182:\n        /* \"#utility.yul\":3842:3905   */\n      swap2\n      pop\n        /* \"#utility.yul\":3798:3915   */\n      pop\n        /* \"#utility.yul\":3593:3922   */\n      swap3\n      swap2\n      pop\n      pop\n      jump\t// out\n        /* \"#utility.yul\":3928:4018   */\n    tag_119:\n        /* \"#utility.yul\":3962:3969   */\n      0x00\n        /* \"#utility.yul\":4005:4010   */\n      dup2\n        /* \"#utility.yul\":3998:4011   */\n      iszero\n        /* \"#utility.yul\":3991:4012   */\n      iszero\n        /* \"#utility.yul\":3980:4012   */\n      swap1\n      pop\n        /* \"#utility.yul\":3928:4018   */\n      swap2\n      swap1\n      pop\n      jump\t// out\n        /* \"#utility.yul\":4024:4133   */\n    tag_120:\n        /* \"#utility.yul\":4105:4126   */\n      tag_185\n        /* \"#utility.yul\":4120:4125   */\n      dup2\n        /* \"#utility.yul\":4105:4126   */\n      tag_119\n      jump\t// in\n    tag_185:\n        /* \"#utility.yul\":4100:4103   */\n      dup3\n        /* \"#utility.yul\":4093:4127   */\n      mstore\n        /* \"#utility.yul\":4024:4133   */\n      pop\n      pop\n      jump\t// out\n        /* \"#utility.yul\":4139:4349   */\n    tag_20:\n        /* \"#utility.yul\":4226:4230   */\n      0x00\n        /* \"#utility.yul\":4264:4266   */\n      0x20\n        /* \"#utility.yul\":4253:4262   */\n      dup3\n        /* \"#utility.yul\":4249:4267   */\n      add\n        /* \"#utility.yul\":4241:4267   */\n      swap1\n      pop\n        /* \"#utility.yul\":4277:4342   */\n      tag_187\n        /* \"#utility.yul\":4339:4340   */\n      0x00\n        /* \"#utility.yul\":4328:4337   */\n      dup4\n        /* \"#utility.yul\":4324:4341   */\n      add\n        /* \"#utility.yul\":4315:4321   */\n      dup5\n        /* \"#utility.yul\":4277:4342   */\n      tag_120\n      jump\t// in\n    tag_187:\n        /* \"#utility.yul\":4139:4349   */\n      swap3\n      swap2\n      pop\n      pop\n      jump\t// out\n        /* \"#utility.yul\":4355:4473   */\n    tag_121:\n        /* \"#utility.yul\":4442:4466   */\n      tag_189\n        /* \"#utility.yul\":4460:4465   */\n      dup2\n        /* \"#utility.yul\":4442:4466   */\n      tag_110\n      jump\t// in\n    tag_189:\n        /* \"#utility.yul\":4437:4440   */\n      dup3\n        /* \"#utility.yul\":4430:4467   */\n      mstore\n        /* \"#utility.yul\":4355:4473   */\n      pop\n      pop\n      jump\t// out\n        /* \"#utility.yul\":4479:4701   */\n    tag_24:\n        /* \"#utility.yul\":4572:4576   */\n      0x00\n        /* \"#utility.yul\":4610:4612   */\n      0x20\n        /* \"#utility.yul\":4599:4608   */\n      dup3\n        /* \"#utility.yul\":4595:4613   */\n      add\n        /* \"#utility.yul\":4587:4613   */\n      swap1\n      pop\n        /* \"#utility.yul\":4623:4694   */\n      tag_191\n        /* \"#utility.yul\":4691:4692   */\n      0x00\n        /* \"#utility.yul\":4680:4689   */\n      dup4\n        /* \"#utility.yul\":4676:4693   */\n      add\n        /* \"#utility.yul\":4667:4673   */\n      dup5\n        /* \"#utility.yul\":4623:4694   */\n      tag_121\n      jump\t// in\n    tag_191:\n        /* \"#utility.yul\":4479:4701   */\n      swap3\n      swap2\n      pop\n      pop\n      jump\t// out\n        /* \"#utility.yul\":4707:4786   */\n    tag_122:\n        /* \"#utility.yul\":4746:4753   */\n      0x00\n        /* \"#utility.yul\":4775:4780   */\n      dup2\n        /* \"#utility.yul\":4764:4780   */\n      swap1\n      pop\n        /* \"#utility.yul\":4707:4786   */\n      swap2\n      swap1\n      pop\n      jump\t// out\n        /* \"#utility.yul\":4792:4949   */\n    tag_123:\n        /* \"#utility.yul\":4897:4942   */\n      tag_194\n        /* \"#utility.yul\":4917:4941   */\n      tag_195\n        /* \"#utility.yul\":4935:4940   */\n      dup3\n        /* \"#utility.yul\":4917:4941   */\n      tag_106\n      jump\t// in\n    tag_195:\n        /* \"#utility.yul\":4897:4942   */\n      tag_122\n      jump\t// in\n    tag_194:\n        /* \"#utility.yul\":4892:4895   */\n      dup3\n        /* \"#utility.yul\":4885:4943   */\n      mstore\n        /* \"#utility.yul\":4792:4949   */\n      pop\n      pop\n      jump\t// out\n        /* \"#utility.yul\":4955:5049   */\n    tag_124:\n        /* \"#utility.yul\":4988:4996   */\n      0x00\n        /* \"#utility.yul\":5036:5041   */\n      dup2\n        /* \"#utility.yul\":5032:5034   */\n      0x60\n        /* \"#utility.yul\":5028:5042   */\n      shl\n        /* \"#utility.yul\":5007:5042   */\n      swap1\n      pop\n        /* \"#utility.yul\":4955:5049   */\n      swap2\n      swap1\n      pop\n      jump\t// out\n        /* \"#utility.yul\":5055:5149   */\n    tag_125:\n        /* \"#utility.yul\":5094:5101   */\n      0x00\n        /* \"#utility.yul\":5123:5143   */\n      tag_198\n        /* \"#utility.yul\":5137:5142   */\n      dup3\n        /* \"#utility.yul\":5123:5143   */\n      tag_124\n      jump\t// in\n    tag_198:\n        /* \"#utility.yul\":5112:5143   */\n      swap1\n      pop\n        /* \"#utility.yul\":5055:5149   */\n      swap2\n      swap1\n      pop\n      jump\t// out\n        /* \"#utility.yul\":5155:5255   */\n    tag_126:\n        /* \"#utility.yul\":5194:5201   */\n      0x00\n        /* \"#utility.yul\":5223:5249   */\n      tag_200\n        /* \"#utility.yul\":5243:5248   */\n      dup3\n        /* \"#utility.yul\":5223:5249   */\n      tag_125\n      jump\t// in\n    tag_200:\n        /* \"#utility.yul\":5212:5249   */\n      swap1\n      pop\n        /* \"#utility.yul\":5155:5255   */\n      swap2\n      swap1\n      pop\n      jump\t// out\n        /* \"#utility.yul\":5261:5418   */\n    tag_127:\n        /* \"#utility.yul\":5366:5411   */\n      tag_202\n        /* \"#utility.yul\":5386:5410   */\n      tag_203\n        /* \"#utility.yul\":5404:5409   */\n      dup3\n        /* \"#utility.yul\":5386:5410   */\n      tag_110\n      jump\t// in\n    tag_203:\n        /* \"#utility.yul\":5366:5411   */\n      tag_126\n      jump\t// in\n    tag_202:\n        /* \"#utility.yul\":5361:5364   */\n      dup3\n        /* \"#utility.yul\":5354:5412   */\n      mstore\n        /* \"#utility.yul\":5261:5418   */\n      pop\n      pop\n      jump\t// out\n        /* \"#utility.yul\":5424:5962   */\n    tag_29:\n        /* \"#utility.yul\":5592:5595   */\n      0x00\n        /* \"#utility.yul\":5607:5682   */\n      tag_205\n        /* \"#utility.yul\":5678:5681   */\n      dup3\n        /* \"#utility.yul\":5669:5675   */\n      dup7\n        /* \"#utility.yul\":5607:5682   */\n      tag_123\n      jump\t// in\n    tag_205:\n        /* \"#utility.yul\":5707:5709   */\n      0x20\n        /* \"#utility.yul\":5702:5705   */\n      dup3\n        /* \"#utility.yul\":5698:5710   */\n      add\n        /* \"#utility.yul\":5691:5710   */\n      swap2\n      pop\n        /* \"#utility.yul\":5720:5795   */\n      tag_206\n        /* \"#utility.yul\":5791:5794   */\n      dup3\n        /* \"#utility.yul\":5782:5788   */\n      dup6\n        /* \"#utility.yul\":5720:5795   */\n      tag_127\n      jump\t// in\n    tag_206:\n        /* \"#utility.yul\":5820:5822   */\n      0x14\n        /* \"#utility.yul\":5815:5818   */\n      dup3\n        /* \"#utility.yul\":5811:5823   */\n      add\n        /* \"#utility.yul\":5804:5823   */\n      swap2\n      pop\n        /* \"#utility.yul\":5833:5908   */\n      tag_207\n        /* \"#utility.yul\":5904:5907   */\n      dup3\n        /* \"#utility.yul\":5895:5901   */\n      dup5\n        /* \"#utility.yul\":5833:5908   */\n      tag_123\n      jump\t// in\n    tag_207:\n        /* \"#utility.yul\":5933:5935   */\n      0x20\n        /* \"#utility.yul\":5928:5931   */\n      dup3\n        /* \"#utility.yul\":5924:5936   */\n      add\n        /* \"#utility.yul\":5917:5936   */\n      swap2\n      pop\n        /* \"#utility.yul\":5953:5956   */\n      dup2\n        /* \"#utility.yul\":5946:5956   */\n      swap1\n      pop\n        /* \"#utility.yul\":5424:5962   */\n      swap5\n      swap4\n      pop\n      pop\n      pop\n      pop\n      jump\t// out\n        /* \"#utility.yul\":5968:6086   */\n    tag_128:\n        /* \"#utility.yul\":6055:6079   */\n      tag_209\n        /* \"#utility.yul\":6073:6078   */\n      dup2\n        /* \"#utility.yul\":6055:6079   */\n      tag_106\n      jump\t// in\n    tag_209:\n        /* \"#utility.yul\":6050:6053   */\n      dup3\n        /* \"#utility.yul\":6043:6080   */\n      mstore\n        /* \"#utility.yul\":5968:6086   */\n      pop\n      pop\n      jump\t// out\n        /* \"#utility.yul\":6092:6534   */\n    tag_38:\n        /* \"#utility.yul\":6241:6245   */\n      0x00\n        /* \"#utility.yul\":6279:6281   */\n      0x60\n        /* \"#utility.yul\":6268:6277   */\n      dup3\n        /* \"#utility.yul\":6264:6282   */\n      add\n        /* \"#utility.yul\":6256:6282   */\n      swap1\n      pop\n        /* \"#utility.yul\":6292:6363   */\n      tag_211\n        /* \"#utility.yul\":6360:6361   */\n      0x00\n        /* \"#utility.yul\":6349:6358   */\n      dup4\n        /* \"#utility.yul\":6345:6362   */\n      add\n        /* \"#utility.yul\":6336:6342   */\n      dup7\n        /* \"#utility.yul\":6292:6363   */\n      tag_128\n      jump\t// in\n    tag_211:\n        /* \"#utility.yul\":6373:6445   */\n      tag_212\n        /* \"#utility.yul\":6441:6443   */\n      0x20\n        /* \"#utility.yul\":6430:6439   */\n      dup4\n        /* \"#utility.yul\":6426:6444   */\n      add\n        /* \"#utility.yul\":6417:6423   */\n      dup6\n        /* \"#utility.yul\":6373:6445   */\n      tag_121\n      jump\t// in\n    tag_212:\n        /* \"#utility.yul\":6455:6527   */\n      tag_213\n        /* \"#utility.yul\":6523:6525   */\n      0x40\n        /* \"#utility.yul\":6512:6521   */\n      dup4\n        /* \"#utility.yul\":6508:6526   */\n      add\n        /* \"#utility.yul\":6499:6505   */\n      dup5\n        /* \"#utility.yul\":6455:6527   */\n      tag_128\n      jump\t// in\n    tag_213:\n        /* \"#utility.yul\":6092:6534   */\n      swap5\n      swap4\n      pop\n      pop\n      pop\n      pop\n      jump\t// out\n        /* \"#utility.yul\":6540:6720   */\n    tag_129:\n        /* \"#utility.yul\":6588:6665   */\n      0x4e487b7100000000000000000000000000000000000000000000000000000000\n        /* \"#utility.yul\":6585:6586   */\n      0x00\n        /* \"#utility.yul\":6578:6666   */\n      mstore\n        /* \"#utility.yul\":6685:6689   */\n      0x12\n        /* \"#utility.yul\":6682:6683   */\n      0x04\n        /* \"#utility.yul\":6675:6690   */\n      mstore\n        /* \"#utility.yul\":6709:6713   */\n      0x24\n        /* \"#utility.yul\":6706:6707   */\n      0x00\n        /* \"#utility.yul\":6699:6714   */\n      revert\n        /* \"#utility.yul\":6912:7097   */\n    tag_41:\n        /* \"#utility.yul\":6952:6953   */\n      0x00\n        /* \"#utility.yul\":6969:6989   */\n      tag_217\n        /* \"#utility.yul\":6987:6988   */\n      dup3\n        /* \"#utility.yul\":6969:6989   */\n      tag_106\n      jump\t// in\n    tag_217:\n        /* \"#utility.yul\":6964:6989   */\n      swap2\n      pop\n        /* \"#utility.yul\":7003:7023   */\n      tag_218\n        /* \"#utility.yul\":7021:7022   */\n      dup4\n        /* \"#utility.yul\":7003:7023   */\n      tag_106\n      jump\t// in\n    tag_218:\n        /* \"#utility.yul\":6998:7023   */\n      swap3\n      pop\n        /* \"#utility.yul\":7042:7043   */\n      dup3\n        /* \"#utility.yul\":7032:7067   */\n      tag_219\n      jumpi\n        /* \"#utility.yul\":7047:7065   */\n      tag_220\n      tag_129\n      jump\t// in\n    tag_220:\n        /* \"#utility.yul\":7032:7067   */\n    tag_219:\n        /* \"#utility.yul\":7089:7090   */\n      dup3\n        /* \"#utility.yul\":7086:7087   */\n      dup3\n        /* \"#utility.yul\":7082:7091   */\n      div\n        /* \"#utility.yul\":7077:7091   */\n      swap1\n      pop\n        /* \"#utility.yul\":6912:7097   */\n      swap3\n      swap2\n      pop\n      pop\n      jump\t// out\n        /* \"#utility.yul\":7103:7279   */\n    tag_43:\n        /* \"#utility.yul\":7135:7136   */\n      0x00\n        /* \"#utility.yul\":7152:7172   */\n      tag_222\n        /* \"#utility.yul\":7170:7171   */\n      dup3\n        /* \"#utility.yul\":7152:7172   */\n      tag_106\n      jump\t// in\n    tag_222:\n        /* \"#utility.yul\":7147:7172   */\n      swap2\n      pop\n        /* \"#utility.yul\":7186:7206   */\n      tag_223\n        /* \"#utility.yul\":7204:7205   */\n      dup4\n        /* \"#utility.yul\":7186:7206   */\n      tag_106\n      jump\t// in\n    tag_223:\n        /* \"#utility.yul\":7181:7206   */\n      swap3\n      pop\n        /* \"#utility.yul\":7225:7226   */\n      dup3\n        /* \"#utility.yul\":7215:7250   */\n      tag_224\n      jumpi\n        /* \"#utility.yul\":7230:7248   */\n      tag_225\n      tag_129\n      jump\t// in\n    tag_225:\n        /* \"#utility.yul\":7215:7250   */\n    tag_224:\n        /* \"#utility.yul\":7271:7272   */\n      dup3\n        /* \"#utility.yul\":7268:7269   */\n      dup3\n        /* \"#utility.yul\":7264:7273   */\n      mod\n        /* \"#utility.yul\":7259:7273   */\n      swap1\n      pop\n        /* \"#utility.yul\":7103:7279   */\n      swap3\n      swap2\n      pop\n      pop\n      jump\t// out\n        /* \"#utility.yul\":7285:7617   */\n    tag_53:\n        /* \"#utility.yul\":7406:7410   */\n      0x00\n        /* \"#utility.yul\":7444:7446   */\n      0x40\n        /* \"#utility.yul\":7433:7442   */\n      dup3\n        /* \"#utility.yul\":7429:7447   */\n      add\n        /* \"#utility.yul\":7421:7447   */\n      swap1\n      pop\n        /* \"#utility.yul\":7457:7528   */\n      tag_227\n        /* \"#utility.yul\":7525:7526   */\n      0x00\n        /* \"#utility.yul\":7514:7523   */\n      dup4\n        /* \"#utility.yul\":7510:7527   */\n      add\n        /* \"#utility.yul\":7501:7507   */\n      dup6\n        /* \"#utility.yul\":7457:7528   */\n      tag_121\n      jump\t// in\n    tag_227:\n        /* \"#utility.yul\":7538:7610   */\n      tag_228\n        /* \"#utility.yul\":7606:7608   */\n      0x20\n        /* \"#utility.yul\":7595:7604   */\n      dup4\n        /* \"#utility.yul\":7591:7609   */\n      add\n        /* \"#utility.yul\":7582:7588   */\n      dup5\n        /* \"#utility.yul\":7538:7610   */\n      tag_128\n      jump\t// in\n    tag_228:\n        /* \"#utility.yul\":7285:7617   */\n      swap4\n      swap3\n      pop\n      pop\n      pop\n      jump\t// out\n        /* \"#utility.yul\":7623:7803   */\n    tag_62:\n        /* \"#utility.yul\":7671:7748   */\n      0x4e487b7100000000000000000000000000000000000000000000000000000000\n        /* \"#utility.yul\":7668:7669   */\n      0x00\n        /* \"#utility.yul\":7661:7749   */\n      mstore\n        /* \"#utility.yul\":7768:7772   */\n      0x32\n        /* \"#utility.yul\":7765:7766   */\n      0x04\n        /* \"#utility.yul\":7758:7773   */\n      mstore\n        /* \"#utility.yul\":7792:7796   */\n      0x24\n        /* \"#utility.yul\":7789:7790   */\n      0x00\n        /* \"#utility.yul\":7782:7797   */\n      revert\n        /* \"#utility.yul\":7809:7925   */\n    tag_131:\n        /* \"#utility.yul\":7879:7900   */\n      tag_231\n        /* \"#utility.yul\":7894:7899   */\n      dup2\n        /* \"#utility.yul\":7879:7900   */\n      tag_119\n      jump\t// in\n    tag_231:\n        /* \"#utility.yul\":7872:7877   */\n      dup2\n        /* \"#utility.yul\":7869:7901   */\n      eq\n        /* \"#utility.yul\":7859:7919   */\n      tag_232\n      jumpi\n        /* \"#utility.yul\":7915:7916   */\n      0x00\n        /* \"#utility.yul\":7912:7913   */\n      dup1\n        /* \"#utility.yul\":7905:7917   */\n      revert\n        /* \"#utility.yul\":7859:7919   */\n    tag_232:\n        /* \"#utility.yul\":7809:7925   */\n      pop\n      jump\t// out\n        /* \"#utility.yul\":7931:8068   */\n    tag_132:\n        /* \"#utility.yul\":7985:7990   */\n      0x00\n        /* \"#utility.yul\":8016:8022   */\n      dup2\n        /* \"#utility.yul\":8010:8023   */\n      mload\n        /* \"#utility.yul\":8001:8023   */\n      swap1\n      pop\n        /* \"#utility.yul\":8032:8062   */\n      tag_234\n        /* \"#utility.yul\":8056:8061   */\n      dup2\n        /* \"#utility.yul\":8032:8062   */\n      tag_131\n      jump\t// in\n    tag_234:\n        /* \"#utility.yul\":7931:8068   */\n      swap3\n      swap2\n      pop\n      pop\n      jump\t// out\n        /* \"#utility.yul\":8074:8419   */\n    tag_69:\n        /* \"#utility.yul\":8141:8147   */\n      0x00\n        /* \"#utility.yul\":8190:8192   */\n      0x20\n        /* \"#utility.yul\":8178:8187   */\n      dup3\n        /* \"#utility.yul\":8169:8176   */\n      dup5\n        /* \"#utility.yul\":8165:8188   */\n      sub\n        /* \"#utility.yul\":8161:8193   */\n      slt\n        /* \"#utility.yul\":8158:8277   */\n      iszero\n      tag_236\n      jumpi\n        /* \"#utility.yul\":8196:8275   */\n      tag_237\n      tag_104\n      jump\t// in\n    tag_237:\n        /* \"#utility.yul\":8158:8277   */\n    tag_236:\n        /* \"#utility.yul\":8316:8317   */\n      0x00\n        /* \"#utility.yul\":8341:8402   */\n      tag_238\n        /* \"#utility.yul\":8394:8401   */\n      dup5\n        /* \"#utility.yul\":8385:8391   */\n      dup3\n        /* \"#utility.yul\":8374:8383   */\n      dup6\n        /* \"#utility.yul\":8370:8392   */\n      add\n        /* \"#utility.yul\":8341:8402   */\n      tag_132\n      jump\t// in\n    tag_238:\n        /* \"#utility.yul\":8331:8402   */\n      swap2\n      pop\n        /* \"#utility.yul\":8287:8412   */\n      pop\n        /* \"#utility.yul\":8074:8419   */\n      swap3\n      swap2\n      pop\n      pop\n      jump\t// out\n        /* \"#utility.yul\":8425:8523   */\n    tag_133:\n        /* \"#utility.yul\":8476:8482   */\n      0x00\n        /* \"#utility.yul\":8510:8515   */\n      dup2\n        /* \"#utility.yul\":8504:8516   */\n      mload\n        /* \"#utility.yul\":8494:8516   */\n      swap1\n      pop\n        /* \"#utility.yul\":8425:8523   */\n      swap2\n      swap1\n      pop\n      jump\t// out\n        /* \"#utility.yul\":8529:8676   */\n    tag_134:\n        /* \"#utility.yul\":8630:8641   */\n      0x00\n        /* \"#utility.yul\":8667:8670   */\n      dup2\n        /* \"#utility.yul\":8652:8670   */\n      swap1\n      pop\n        /* \"#utility.yul\":8529:8676   */\n      swap3\n      swap2\n      pop\n      pop\n      jump\t// out\n        /* \"#utility.yul\":8682:8928   */\n    tag_135:\n        /* \"#utility.yul\":8763:8764   */\n      0x00\n        /* \"#utility.yul\":8773:8886   */\n    tag_242:\n        /* \"#utility.yul\":8787:8793   */\n      dup4\n        /* \"#utility.yul\":8784:8785   */\n      dup2\n        /* \"#utility.yul\":8781:8794   */\n      lt\n        /* \"#utility.yul\":8773:8886   */\n      iszero\n      tag_244\n      jumpi\n        /* \"#utility.yul\":8872:8873   */\n      dup1\n        /* \"#utility.yul\":8867:8870   */\n      dup3\n        /* \"#utility.yul\":8863:8874   */\n      add\n        /* \"#utility.yul\":8857:8875   */\n      mload\n        /* \"#utility.yul\":8853:8854   */\n      dup2\n        /* \"#utility.yul\":8848:8851   */\n      dup5\n        /* \"#utility.yul\":8844:8855   */\n      add\n        /* \"#utility.yul\":8837:8876   */\n      mstore\n        /* \"#utility.yul\":8809:8811   */\n      0x20\n        /* \"#utility.yul\":8806:8807   */\n      dup2\n        /* \"#utility.yul\":8802:8812   */\n      add\n        /* \"#utility.yul\":8797:8812   */\n      swap1\n      pop\n        /* \"#utility.yul\":8773:8886   */\n      jump(tag_242)\n    tag_244:\n        /* \"#utility.yul\":8920:8921   */\n      0x00\n        /* \"#utility.yul\":8911:8917   */\n      dup5\n        /* \"#utility.yul\":8906:8909   */\n      dup5\n        /* \"#utility.yul\":8902:8918   */\n      add\n        /* \"#utility.yul\":8895:8922   */\n      mstore\n        /* \"#utility.yul\":8744:8928   */\n      pop\n        /* \"#utility.yul\":8682:8928   */\n      pop\n      pop\n      pop\n      jump\t// out\n        /* \"#utility.yul\":8934:9320   */\n    tag_136:\n        /* \"#utility.yul\":9038:9041   */\n      0x00\n        /* \"#utility.yul\":9066:9104   */\n      tag_246\n        /* \"#utility.yul\":9098:9103   */\n      dup3\n        /* \"#utility.yul\":9066:9104   */\n      tag_133\n      jump\t// in\n    tag_246:\n        /* \"#utility.yul\":9120:9208   */\n      tag_247\n        /* \"#utility.yul\":9201:9207   */\n      dup2\n        /* \"#utility.yul\":9196:9199   */\n      dup6\n        /* \"#utility.yul\":9120:9208   */\n      tag_134\n      jump\t// in\n    tag_247:\n        /* \"#utility.yul\":9113:9208   */\n      swap4\n      pop\n        /* \"#utility.yul\":9217:9282   */\n      tag_248\n        /* \"#utility.yul\":9275:9281   */\n      dup2\n        /* \"#utility.yul\":9270:9273   */\n      dup6\n        /* \"#utility.yul\":9263:9267   */\n      0x20\n        /* \"#utility.yul\":9256:9261   */\n      dup7\n        /* \"#utility.yul\":9252:9268   */\n      add\n        /* \"#utility.yul\":9217:9282   */\n      tag_135\n      jump\t// in\n    tag_248:\n        /* \"#utility.yul\":9307:9313   */\n      dup1\n        /* \"#utility.yul\":9302:9305   */\n      dup5\n        /* \"#utility.yul\":9298:9314   */\n      add\n        /* \"#utility.yul\":9291:9314   */\n      swap2\n      pop\n        /* \"#utility.yul\":9042:9320   */\n      pop\n        /* \"#utility.yul\":8934:9320   */\n      swap3\n      swap2\n      pop\n      pop\n      jump\t// out\n        /* \"#utility.yul\":9326:9597   */\n    tag_86:\n        /* \"#utility.yul\":9456:9459   */\n      0x00\n        /* \"#utility.yul\":9478:9571   */\n      tag_250\n        /* \"#utility.yul\":9567:9570   */\n      dup3\n        /* \"#utility.yul\":9558:9564   */\n      dup5\n        /* \"#utility.yul\":9478:9571   */\n      tag_136\n      jump\t// in\n    tag_250:\n        /* \"#utility.yul\":9471:9571   */\n      swap2\n      pop\n        /* \"#utility.yul\":9588:9591   */\n      dup2\n        /* \"#utility.yul\":9581:9591   */\n      swap1\n      pop\n        /* \"#utility.yul\":9326:9597   */\n      swap3\n      swap2\n      pop\n      pop\n      jump\t// out\n\n    auxdata: 0xa2646970667358221220c181e714ac0aca9d1680dbe493f5e75d4d4a6d3463c91a4224fa83576a38da8764736f6c63430008180033\n}\n",
				"bytecode": {
					"linkReferences": {},
					"object": "60c060405234801562000010575f80fd5b5060405162000d5a38038062000d5a833981810160405281019062000036919062000117565b8173ffffffffffffffffffffffffffffffffffffffff1660808173ffffffffffffffffffffffffffffffffffffffff16815250508060a0818152505050506200015c565b5f80fd5b5f73ffffffffffffffffffffffffffffffffffffffff82169050919050565b5f620000a9826200007e565b9050919050565b620000bb816200009d565b8114620000c6575f80fd5b50565b5f81519050620000d981620000b0565b92915050565b5f819050919050565b620000f381620000df565b8114620000fe575f80fd5b50565b5f815190506200011181620000e8565b92915050565b5f806040838503121562000130576200012f6200007a565b5b5f6200013f85828601620000c9565b9250506020620001528582860162000101565b9150509250929050565b60805160a051610bce6200018c5f395f818161018a015261027e01525f81816101f501526102f10152610bce5ff3fe608060405234801561000f575f80fd5b506004361061004a575f3560e01c80632e7ba6ef1461004e5780632eb4a7ab1461006a5780639e34070f14610088578063fc0c546a146100b8575b5f80fd5b610068600480360381019061006391906107c0565b6100d6565b005b61007261027c565b60405161007f919061085c565b60405180910390f35b6100a2600480360381019061009d9190610875565b6102a0565b6040516100af91906108ba565b60405180910390f35b6100c06102ef565b6040516100cd91906108e2565b60405180910390f35b6100df856102a0565b15610116576040517f646cf55800000000000000000000000000000000000000000000000000000000815260040160405180910390fd5b5f85858560405160200161012c93929190610960565b6040516020818303038152906040528051906020012090506101af8383808060200260200160405190810160405280939291908181526020018383602002808284375f81840152601f19601f820116905080830192505050505050507f000000000000000000000000000000000000000000000000000000000000000083610313565b6101e5576040517f09bde33900000000000000000000000000000000000000000000000000000000815260040160405180910390fd5b6101ee86610329565b61023985857f000000000000000000000000000000000000000000000000000000000000000073ffffffffffffffffffffffffffffffffffffffff1661037b9092919063ffffffff16565b7f4ec90e965519d92681267467f775ada5bd214aa92c0dc93d90a5e880ce9ed02686868660405161026c939291906109ab565b60405180910390a1505050505050565b7f000000000000000000000000000000000000000000000000000000000000000081565b5f80610100836102b09190610a0d565b90505f610100846102c19190610a3d565b90505f805f8481526020019081526020015f205490505f826001901b90508081831614945050505050919050565b7f000000000000000000000000000000000000000000000000000000000000000081565b5f8261031f85846103fa565b1490509392505050565b5f610100826103389190610a0d565b90505f610100836103499190610a3d565b9050806001901b5f808481526020019081526020015f2054175f808481526020019081526020015f2081905550505050565b6103f5838473ffffffffffffffffffffffffffffffffffffffff1663a9059cbb85856040516024016103ae929190610a6d565b604051602081830303815290604052915060e01b6020820180517bffffffffffffffffffffffffffffffffffffffffffffffffffffffff8381831617835250505050610448565b505050565b5f808290505f5b845181101561043d5761042e8286838151811061042157610420610a94565b5b60200260200101516104dd565b91508080600101915050610401565b508091505092915050565b5f610472828473ffffffffffffffffffffffffffffffffffffffff1661050790919063ffffffff16565b90505f8151141580156104965750808060200190518101906104949190610aeb565b155b156104d857826040517f5274afe70000000000000000000000000000000000000000000000000000000081526004016104cf91906108e2565b60405180910390fd5b505050565b5f8183106104f4576104ef828461051c565b6104ff565b6104fe838361051c565b5b905092915050565b606061051483835f610530565b905092915050565b5f825f528160205260405f20905092915050565b60608147101561057757306040517fcd78605900000000000000000000000000000000000000000000000000000000815260040161056e91906108e2565b60405180910390fd5b5f808573ffffffffffffffffffffffffffffffffffffffff16848660405161059f9190610b82565b5f6040518083038185875af1925050503d805f81146105d9576040519150601f19603f3d011682016040523d82523d5f602084013e6105de565b606091505b50915091506105ee8683836105f9565b925050509392505050565b60608261060e5761060982610686565b61067e565b5f825114801561063457505f8473ffffffffffffffffffffffffffffffffffffffff163b145b1561067657836040517f9996b31500000000000000000000000000000000000000000000000000000000815260040161066d91906108e2565b60405180910390fd5b81905061067f565b5b9392505050565b5f815111156106985780518082602001fd5b6040517f1425ea4200000000000000000000000000000000000000000000000000000000815260040160405180910390fd5b5f80fd5b5f80fd5b5f819050919050565b6106e4816106d2565b81146106ee575f80fd5b50565b5f813590506106ff816106db565b92915050565b5f73ffffffffffffffffffffffffffffffffffffffff82169050919050565b5f61072e82610705565b9050919050565b61073e81610724565b8114610748575f80fd5b50565b5f8135905061075981610735565b92915050565b5f80fd5b5f80fd5b5f80fd5b5f8083601f8401126107805761077f61075f565b5b8235905067ffffffffffffffff81111561079d5761079c610763565b5b6020830191508360208202830111156107b9576107b8610767565b5b9250929050565b5f805f805f608086880312156107d9576107d86106ca565b5b5f6107e6888289016106f1565b95505060206107f78882890161074b565b9450506040610808888289016106f1565b935050606086013567ffffffffffffffff811115610829576108286106ce565b5b6108358882890161076b565b92509250509295509295909350565b5f819050919050565b61085681610844565b82525050565b5f60208201905061086f5f83018461084d565b92915050565b5f6020828403121561088a576108896106ca565b5b5f610897848285016106f1565b91505092915050565b5f8115159050919050565b6108b4816108a0565b82525050565b5f6020820190506108cd5f8301846108ab565b92915050565b6108dc81610724565b82525050565b5f6020820190506108f55f8301846108d3565b92915050565b5f819050919050565b610915610910826106d2565b6108fb565b82525050565b5f8160601b9050919050565b5f6109318261091b565b9050919050565b5f61094282610927565b9050919050565b61095a61095582610724565b610938565b82525050565b5f61096b8286610904565b60208201915061097b8285610949565b60148201915061098b8284610904565b602082019150819050949350505050565b6109a5816106d2565b82525050565b5f6060820190506109be5f83018661099c565b6109cb60208301856108d3565b6109d8604083018461099c565b949350505050565b7f4e487b71000000000000000000000000000000000000000000000000000000005f52601260045260245ffd5b5f610a17826106d2565b9150610a22836106d2565b925082610a3257610a316109e0565b5b828204905092915050565b5f610a47826106d2565b9150610a52836106d2565b925082610a6257610a616109e0565b5b828206905092915050565b5f604082019050610a805f8301856108d3565b610a8d602083018461099c565b9392505050565b7f4e487b71000000000000000000000000000000000000000000000000000000005f52603260045260245ffd5b610aca816108a0565b8114610ad4575f80fd5b50565b5f81519050610ae581610ac1565b92915050565b5f60208284031215610b0057610aff6106ca565b5b5f610b0d84828501610ad7565b91505092915050565b5f81519050919050565b5f81905092915050565b5f5b83811015610b47578082015181840152602081019050610b2c565b5f8484015250505050565b5f610b5c82610b16565b610b668185610b20565b9350610b76818560208601610b2a565b80840191505092915050565b5f610b8d8284610b52565b91508190509291505056fea2646970667358221220c181e714ac0aca9d1680dbe493f5e75d4d4a6d3463c91a4224fa83576a38da8764736f6c63430008180033",
					"opcodes": "PUSH1 0xC0 PUSH1 0x40 MSTORE CALLVALUE DUP1 ISZERO PUSH3 0x10 JUMPI PUSH0 DUP1 REVERT JUMPDEST POP PUSH1 0x40 MLOAD PUSH3 0xD5A CODESIZE SUB DUP1 PUSH3 0xD5A DUP4 CODECOPY DUP2 DUP2 ADD PUSH1 0x40 MSTORE DUP2 ADD SWAP1 PUSH3 0x36 SWAP2 SWAP1 PUSH3 0x117 JUMP JUMPDEST DUP2 PUSH20 0xFFFFFFFFFFFFFFFFFFFFFFFFFFFFFFFFFFFFFFFF AND PUSH1 0x80 DUP2 PUSH20 0xFFFFFFFFFFFFFFFFFFFFFFFFFFFFFFFFFFFFFFFF AND DUP2 MSTORE POP POP DUP1 PUSH1 0xA0 DUP2 DUP2 MSTORE POP POP POP POP PUSH3 0x15C JUMP JUMPDEST PUSH0 DUP1 REVERT JUMPDEST PUSH0 PUSH20 0xFFFFFFFFFFFFFFFFFFFFFFFFFFFFFFFFFFFFFFFF DUP3 AND SWAP1 POP SWAP2 SWAP1 POP JUMP JUMPDEST PUSH0 PUSH3 0xA9 DUP3 PUSH3 0x7E JUMP JUMPDEST SWAP1 POP SWAP2 SWAP1 POP JUMP JUMPDEST PUSH3 0xBB DUP2 PUSH3 0x9D JUMP JUMPDEST DUP2 EQ PUSH3 0xC6 JUMPI PUSH0 DUP1 REVERT JUMPDEST POP JUMP JUMPDEST PUSH0 DUP2 MLOAD SWAP1 POP PUSH3 0xD9 DUP2 PUSH3 0xB0 JUMP JUMPDEST SWAP3 SWAP2 POP POP JUMP JUMPDEST PUSH0 DUP2 SWAP1 POP SWAP2 SWAP1 POP JUMP JUMPDEST PUSH3 0xF3 DUP2 PUSH3 0xDF JUMP JUMPDEST DUP2 EQ PUSH3 0xFE JUMPI PUSH0 DUP1 REVERT JUMPDEST POP JUMP JUMPDEST PUSH0 DUP2 MLOAD SWAP1 POP PUSH3 0x111 DUP2 PUSH3 0xE8 JUMP JUMPDEST SWAP3 SWAP2 POP POP JUMP JUMPDEST PUSH0 DUP1 PUSH1 0x40 DUP4 DUP6 SUB SLT ISZERO PUSH3 0x130 JUMPI PUSH3 0x12F PUSH3 0x7A JUMP JUMPDEST JUMPDEST PUSH0 PUSH3 0x13F DUP6 DUP3 DUP7 ADD PUSH3 0xC9 JUMP JUMPDEST SWAP3 POP POP PUSH1 0x20 PUSH3 0x152 DUP6 DUP3 DUP7 ADD PUSH3 0x101 JUMP JUMPDEST SWAP2 POP POP SWAP3 POP SWAP3 SWAP1 POP JUMP JUMPDEST PUSH1 0x80 MLOAD PUSH1 0xA0 MLOAD PUSH2 0xBCE PUSH3 0x18C PUSH0 CODECOPY PUSH0 DUP2 DUP2 PUSH2 0x18A ADD MSTORE PUSH2 0x27E ADD MSTORE PUSH0 DUP2 DUP2 PUSH2 0x1F5 ADD MSTORE PUSH2 0x2F1 ADD MSTORE PUSH2 0xBCE PUSH0 RETURN INVALID PUSH1 0x80 PUSH1 0x40 MSTORE CALLVALUE DUP1 ISZERO PUSH2 0xF JUMPI PUSH0 DUP1 REVERT JUMPDEST POP PUSH1 0x4 CALLDATASIZE LT PUSH2 0x4A JUMPI PUSH0 CALLDATALOAD PUSH1 0xE0 SHR DUP1 PUSH4 0x2E7BA6EF EQ PUSH2 0x4E JUMPI DUP1 PUSH4 0x2EB4A7AB EQ PUSH2 0x6A JUMPI DUP1 PUSH4 0x9E34070F EQ PUSH2 0x88 JUMPI DUP1 PUSH4 0xFC0C546A EQ PUSH2 0xB8 JUMPI JUMPDEST PUSH0 DUP1 REVERT JUMPDEST PUSH2 0x68 PUSH1 0x4 DUP1 CALLDATASIZE SUB DUP2 ADD SWAP1 PUSH2 0x63 SWAP2 SWAP1 PUSH2 0x7C0 JUMP JUMPDEST PUSH2 0xD6 JUMP JUMPDEST STOP JUMPDEST PUSH2 0x72 PUSH2 0x27C JUMP JUMPDEST PUSH1 0x40 MLOAD PUSH2 0x7F SWAP2 SWAP1 PUSH2 0x85C JUMP JUMPDEST PUSH1 0x40 MLOAD DUP1 SWAP2 SUB SWAP1 RETURN JUMPDEST PUSH2 0xA2 PUSH1 0x4 DUP1 CALLDATASIZE SUB DUP2 ADD SWAP1 PUSH2 0x9D SWAP2 SWAP1 PUSH2 0x875 JUMP JUMPDEST PUSH2 0x2A0 JUMP JUMPDEST PUSH1 0x40 MLOAD PUSH2 0xAF SWAP2 SWAP1 PUSH2 0x8BA JUMP JUMPDEST PUSH1 0x40 MLOAD DUP1 SWAP2 SUB SWAP1 RETURN JUMPDEST PUSH2 0xC0 PUSH2 0x2EF JUMP JUMPDEST PUSH1 0x40 MLOAD PUSH2 0xCD SWAP2 SWAP1 PUSH2 0x8E2 JUMP JUMPDEST PUSH1 0x40 MLOAD DUP1 SWAP2 SUB SWAP1 RETURN JUMPDEST PUSH2 0xDF DUP6 PUSH2 0x2A0 JUMP JUMPDEST ISZERO PUSH2 0x116 JUMPI PUSH1 0x40 MLOAD PUSH32 0x646CF55800000000000000000000000000000000000000000000000000000000 DUP2 MSTORE PUSH1 0x4 ADD PUSH1 0x40 MLOAD DUP1 SWAP2 SUB SWAP1 REVERT JUMPDEST PUSH0 DUP6 DUP6 DUP6 PUSH1 0x40 MLOAD PUSH1 0x20 ADD PUSH2 0x12C SWAP4 SWAP3 SWAP2 SWAP1 PUSH2 0x960 JUMP JUMPDEST PUSH1 0x40 MLOAD PUSH1 0x20 DUP2 DUP4 SUB SUB DUP2 MSTORE SWAP1 PUSH1 0x40 MSTORE DUP1 MLOAD SWAP1 PUSH1 0x20 ADD KECCAK256 SWAP1 POP PUSH2 0x1AF DUP4 DUP4 DUP1 DUP1 PUSH1 0x20 MUL PUSH1 0x20 ADD PUSH1 0x40 MLOAD SWAP1 DUP2 ADD PUSH1 0x40 MSTORE DUP1 SWAP4 SWAP3 SWAP2 SWAP1 DUP2 DUP2 MSTORE PUSH1 0x20 ADD DUP4 DUP4 PUSH1 0x20 MUL DUP1 DUP3 DUP5 CALLDATACOPY PUSH0 DUP2 DUP5 ADD MSTORE PUSH1 0x1F NOT PUSH1 0x1F DUP3 ADD AND SWAP1 POP DUP1 DUP4 ADD SWAP3 POP POP POP POP POP POP POP PUSH32 0x0 DUP4 PUSH2 0x313 JUMP JUMPDEST PUSH2 0x1E5 JUMPI PUSH1 0x40 MLOAD PUSH32 0x9BDE33900000000000000000000000000000000000000000000000000000000 DUP2 MSTORE PUSH1 0x4 ADD PUSH1 0x40 MLOAD DUP1 SWAP2 SUB SWAP1 REVERT JUMPDEST PUSH2 0x1EE DUP7 PUSH2 0x329 JUMP JUMPDEST PUSH2 0x239 DUP6 DUP6 PUSH32 0x0 PUSH20 0xFFFFFFFFFFFFFFFFFFFFFFFFFFFFFFFFFFFFFFFF AND PUSH2 0x37B SWAP1 SWAP3 SWAP2 SWAP1 PUSH4 0xFFFFFFFF AND JUMP JUMPDEST PUSH32 0x4EC90E965519D92681267467F775ADA5BD214AA92C0DC93D90A5E880CE9ED026 DUP7 DUP7 DUP7 PUSH1 0x40 MLOAD PUSH2 0x26C SWAP4 SWAP3 SWAP2 SWAP1 PUSH2 0x9AB JUMP JUMPDEST PUSH1 0x40 MLOAD DUP1 SWAP2 SUB SWAP1 LOG1 POP POP POP POP POP POP JUMP JUMPDEST PUSH32 0x0 DUP2 JUMP JUMPDEST PUSH0 DUP1 PUSH2 0x100 DUP4 PUSH2 0x2B0 SWAP2 SWAP1 PUSH2 0xA0D JUMP JUMPDEST SWAP1 POP PUSH0 PUSH2 0x100 DUP5 PUSH2 0x2C1 SWAP2 SWAP1 PUSH2 0xA3D JUMP JUMPDEST SWAP1 POP PUSH0 DUP1 PUSH0 DUP5 DUP2 MSTORE PUSH1 0x20 ADD SWAP1 DUP2 MSTORE PUSH1 0x20 ADD PUSH0 KECCAK256 SLOAD SWAP1 POP PUSH0 DUP3 PUSH1 0x1 SWAP1 SHL SWAP1 POP DUP1 DUP2 DUP4 AND EQ SWAP5 POP POP POP POP POP SWAP2 SWAP1 POP JUMP JUMPDEST PUSH32 0x0 DUP2 JUMP JUMPDEST PUSH0 DUP3 PUSH2 0x31F DUP6 DUP5 PUSH2 0x3FA JUMP JUMPDEST EQ SWAP1 POP SWAP4 SWAP3 POP POP POP JUMP JUMPDEST PUSH0 PUSH2 0x100 DUP3 PUSH2 0x338 SWAP2 SWAP1 PUSH2 0xA0D JUMP JUMPDEST SWAP1 POP PUSH0 PUSH2 0x100 DUP4 PUSH2 0x349 SWAP2 SWAP1 PUSH2 0xA3D JUMP JUMPDEST SWAP1 POP DUP1 PUSH1 0x1 SWAP1 SHL PUSH0 DUP1 DUP5 DUP2 MSTORE PUSH1 0x20 ADD SWAP1 DUP2 MSTORE PUSH1 0x20 ADD PUSH0 KECCAK256 SLOAD OR PUSH0 DUP1 DUP5 DUP2 MSTORE PUSH1 0x20 ADD SWAP1 DUP2 MSTORE PUSH1 0x20 ADD PUSH0 KECCAK256 DUP2 SWAP1 SSTORE POP POP POP POP JUMP JUMPDEST PUSH2 0x3F5 DUP4 DUP5 PUSH20 0xFFFFFFFFFFFFFFFFFFFFFFFFFFFFFFFFFFFFFFFF AND PUSH4 0xA9059CBB DUP6 DUP6 PUSH1 0x40 MLOAD PUSH1 0x24 ADD PUSH2 0x3AE SWAP3 SWAP2 SWAP1 PUSH2 0xA6D JUMP JUMPDEST PUSH1 0x40 MLOAD PUSH1 0x20 DUP2 DUP4 SUB SUB DUP2 MSTORE SWAP1 PUSH1 0x40 MSTORE SWAP2 POP PUSH1 0xE0 SHL PUSH1 0x20 DUP3 ADD DUP1 MLOAD PUSH28 0xFFFFFFFFFFFFFFFFFFFFFFFFFFFFFFFFFFFFFFFFFFFFFFFFFFFFFFFF DUP4 DUP2 DUP4 AND OR DUP4 MSTORE POP POP POP POP PUSH2 0x448 JUMP JUMPDEST POP POP POP JUMP JUMPDEST PUSH0 DUP1 DUP3 SWAP1 POP PUSH0 JUMPDEST DUP5 MLOAD DUP2 LT ISZERO PUSH2 0x43D JUMPI PUSH2 0x42E DUP3 DUP7 DUP4 DUP2 MLOAD DUP2 LT PUSH2 0x421 JUMPI PUSH2 0x420 PUSH2 0xA94 JUMP JUMPDEST JUMPDEST PUSH1 0x20 MUL PUSH1 0x20 ADD ADD MLOAD PUSH2 0x4DD JUMP JUMPDEST SWAP2 POP DUP1 DUP1 PUSH1 0x1 ADD SWAP2 POP POP PUSH2 0x401 JUMP JUMPDEST POP DUP1 SWAP2 POP POP SWAP3 SWAP2 POP POP JUMP JUMPDEST PUSH0 PUSH2 0x472 DUP3 DUP5 PUSH20 0xFFFFFFFFFFFFFFFFFFFFFFFFFFFFFFFFFFFFFFFF AND PUSH2 0x507 SWAP1 SWAP2 SWAP1 PUSH4 0xFFFFFFFF AND JUMP JUMPDEST SWAP1 POP PUSH0 DUP2 MLOAD EQ ISZERO DUP1 ISZERO PUSH2 0x496 JUMPI POP DUP1 DUP1 PUSH1 0x20 ADD SWAP1 MLOAD DUP2 ADD SWAP1 PUSH2 0x494 SWAP2 SWAP1 PUSH2 0xAEB JUMP JUMPDEST ISZERO JUMPDEST ISZERO PUSH2 0x4D8 JUMPI DUP3 PUSH1 0x40 MLOAD PUSH32 0x5274AFE700000000000000000000000000000000000000000000000000000000 DUP2 MSTORE PUSH1 0x4 ADD PUSH2 0x4CF SWAP2 SWAP1 PUSH2 0x8E2 JUMP JUMPDEST PUSH1 0x40 MLOAD DUP1 SWAP2 SUB SWAP1 REVERT JUMPDEST POP POP POP JUMP JUMPDEST PUSH0 DUP2 DUP4 LT PUSH2 0x4F4 JUMPI PUSH2 0x4EF DUP3 DUP5 PUSH2 0x51C JUMP JUMPDEST PUSH2 0x4FF JUMP JUMPDEST PUSH2 0x4FE DUP4 DUP4 PUSH2 0x51C JUMP JUMPDEST JUMPDEST SWAP1 POP SWAP3 SWAP2 POP POP JUMP JUMPDEST PUSH1 0x60 PUSH2 0x514 DUP4 DUP4 PUSH0 PUSH2 0x530 JUMP JUMPDEST SWAP1 POP SWAP3 SWAP2 POP POP JUMP JUMPDEST PUSH0 DUP3 PUSH0 MSTORE DUP2 PUSH1 0x20 MSTORE PUSH1 0x40 PUSH0 KECCAK256 SWAP1 POP SWAP3 SWAP2 POP POP JUMP JUMPDEST PUSH1 0x60 DUP2 SELFBALANCE LT ISZERO PUSH2 0x577 JUMPI ADDRESS PUSH1 0x40 MLOAD PUSH32 0xCD78605900000000000000000000000000000000000000000000000000000000 DUP2 MSTORE PUSH1 0x4 ADD PUSH2 0x56E SWAP2 SWAP1 PUSH2 0x8E2 JUMP JUMPDEST PUSH1 0x40 MLOAD DUP1 SWAP2 SUB SWAP1 REVERT JUMPDEST PUSH0 DUP1 DUP6 PUSH20 0xFFFFFFFFFFFFFFFFFFFFFFFFFFFFFFFFFFFFFFFF AND DUP5 DUP7 PUSH1 0x40 MLOAD PUSH2 0x59F SWAP2 SWAP1 PUSH2 0xB82 JUMP JUMPDEST PUSH0 PUSH1 0x40 MLOAD DUP1 DUP4 SUB DUP2 DUP6 DUP8 GAS CALL SWAP3 POP POP POP RETURNDATASIZE DUP1 PUSH0 DUP2 EQ PUSH2 0x5D9 JUMPI PUSH1 0x40 MLOAD SWAP2 POP PUSH1 0x1F NOT PUSH1 0x3F RETURNDATASIZE ADD AND DUP3 ADD PUSH1 0x40 MSTORE RETURNDATASIZE DUP3 MSTORE RETURNDATASIZE PUSH0 PUSH1 0x20 DUP5 ADD RETURNDATACOPY PUSH2 0x5DE JUMP JUMPDEST PUSH1 0x60 SWAP2 POP JUMPDEST POP SWAP2 POP SWAP2 POP PUSH2 0x5EE DUP7 DUP4 DUP4 PUSH2 0x5F9 JUMP JUMPDEST SWAP3 POP POP POP SWAP4 SWAP3 POP POP POP JUMP JUMPDEST PUSH1 0x60 DUP3 PUSH2 0x60E JUMPI PUSH2 0x609 DUP3 PUSH2 0x686 JUMP JUMPDEST PUSH2 0x67E JUMP JUMPDEST PUSH0 DUP3 MLOAD EQ DUP1 ISZERO PUSH2 0x634 JUMPI POP PUSH0 DUP5 PUSH20 0xFFFFFFFFFFFFFFFFFFFFFFFFFFFFFFFFFFFFFFFF AND EXTCODESIZE EQ JUMPDEST ISZERO PUSH2 0x676 JUMPI DUP4 PUSH1 0x40 MLOAD PUSH32 0x9996B31500000000000000000000000000000000000000000000000000000000 DUP2 MSTORE PUSH1 0x4 ADD PUSH2 0x66D SWAP2 SWAP1 PUSH2 0x8E2 JUMP JUMPDEST PUSH1 0x40 MLOAD DUP1 SWAP2 SUB SWAP1 REVERT JUMPDEST DUP2 SWAP1 POP PUSH2 0x67F JUMP JUMPDEST JUMPDEST SWAP4 SWAP3 POP POP POP JUMP JUMPDEST PUSH0 DUP2 MLOAD GT ISZERO PUSH2 0x698 JUMPI DUP1 MLOAD DUP1 DUP3 PUSH1 0x20 ADD REVERT JUMPDEST PUSH1 0x40 MLOAD PUSH32 0x1425EA4200000000000000000000000000000000000000000000000000000000 DUP2 MSTORE PUSH1 0x4 ADD PUSH1 0x40 MLOAD DUP1 SWAP2 SUB SWAP1 REVERT JUMPDEST PUSH0 DUP1 REVERT JUMPDEST PUSH0 DUP1 REVERT JUMPDEST PUSH0 DUP2 SWAP1 POP SWAP2 SWAP1 POP JUMP JUMPDEST PUSH2 0x6E4 DUP2 PUSH2 0x6D2 JUMP JUMPDEST DUP2 EQ PUSH2 0x6EE JUMPI PUSH0 DUP1 REVERT JUMPDEST POP JUMP JUMPDEST PUSH0 DUP2 CALLDATALOAD SWAP1 POP PUSH2 0x6FF DUP2 PUSH2 0x6DB JUMP JUMPDEST SWAP3 SWAP2 POP POP JUMP JUMPDEST PUSH0 PUSH20 0xFFFFFFFFFFFFFFFFFFFFFFFFFFFFFFFFFFFFFFFF DUP3 AND SWAP1 POP SWAP2 SWAP1 POP JUMP JUMPDEST PUSH0 PUSH2 0x72E DUP3 PUSH2 0x705 JUMP JUMPDEST SWAP1 POP SWAP2 SWAP1 POP JUMP JUMPDEST PUSH2 0x73E DUP2 PUSH2 0x724 JUMP JUMPDEST DUP2 EQ PUSH2 0x748 JUMPI PUSH0 DUP1 REVERT JUMPDEST POP JUMP JUMPDEST PUSH0 DUP2 CALLDATALOAD SWAP1 POP PUSH2 0x759 DUP2 PUSH2 0x735 JUMP JUMPDEST SWAP3 SWAP2 POP POP JUMP JUMPDEST PUSH0 DUP1 REVERT JUMPDEST PUSH0 DUP1 REVERT JUMPDEST PUSH0 DUP1 REVERT JUMPDEST PUSH0 DUP1 DUP4 PUSH1 0x1F DUP5 ADD SLT PUSH2 0x780 JUMPI PUSH2 0x77F PUSH2 0x75F JUMP JUMPDEST JUMPDEST DUP3 CALLDATALOAD SWAP1 POP PUSH8 0xFFFFFFFFFFFFFFFF DUP2 GT ISZERO PUSH2 0x79D JUMPI PUSH2 0x79C PUSH2 0x763 JUMP JUMPDEST JUMPDEST PUSH1 0x20 DUP4 ADD SWAP2 POP DUP4 PUSH1 0x20 DUP3 MUL DUP4 ADD GT ISZERO PUSH2 0x7B9 JUMPI PUSH2 0x7B8 PUSH2 0x767 JUMP JUMPDEST JUMPDEST SWAP3 POP SWAP3 SWAP1 POP JUMP JUMPDEST PUSH0 DUP1 PUSH0 DUP1 PUSH0 PUSH1 0x80 DUP7 DUP9 SUB SLT ISZERO PUSH2 0x7D9 JUMPI PUSH2 0x7D8 PUSH2 0x6CA JUMP JUMPDEST JUMPDEST PUSH0 PUSH2 0x7E6 DUP9 DUP3 DUP10 ADD PUSH2 0x6F1 JUMP JUMPDEST SWAP6 POP POP PUSH1 0x20 PUSH2 0x7F7 DUP9 DUP3 DUP10 ADD PUSH2 0x74B JUMP JUMPDEST SWAP5 POP POP PUSH1 0x40 PUSH2 0x808 DUP9 DUP3 DUP10 ADD PUSH2 0x6F1 JUMP JUMPDEST SWAP4 POP POP PUSH1 0x60 DUP7 ADD CALLDATALOAD PUSH8 0xFFFFFFFFFFFFFFFF DUP2 GT ISZERO PUSH2 0x829 JUMPI PUSH2 0x828 PUSH2 0x6CE JUMP JUMPDEST JUMPDEST PUSH2 0x835 DUP9 DUP3 DUP10 ADD PUSH2 0x76B JUMP JUMPDEST SWAP3 POP SWAP3 POP POP SWAP3 SWAP6 POP SWAP3 SWAP6 SWAP1 SWAP4 POP JUMP JUMPDEST PUSH0 DUP2 SWAP1 POP SWAP2 SWAP1 POP JUMP JUMPDEST PUSH2 0x856 DUP2 PUSH2 0x844 JUMP JUMPDEST DUP3 MSTORE POP POP JUMP JUMPDEST PUSH0 PUSH1 0x20 DUP3 ADD SWAP1 POP PUSH2 0x86F PUSH0 DUP4 ADD DUP5 PUSH2 0x84D JUMP JUMPDEST SWAP3 SWAP2 POP POP JUMP JUMPDEST PUSH0 PUSH1 0x20 DUP3 DUP5 SUB SLT ISZERO PUSH2 0x88A JUMPI PUSH2 0x889 PUSH2 0x6CA JUMP JUMPDEST JUMPDEST PUSH0 PUSH2 0x897 DUP5 DUP3 DUP6 ADD PUSH2 0x6F1 JUMP JUMPDEST SWAP2 POP POP SWAP3 SWAP2 POP POP JUMP JUMPDEST PUSH0 DUP2 ISZERO ISZERO SWAP1 POP SWAP2 SWAP1 POP JUMP JUMPDEST PUSH2 0x8B4 DUP2 PUSH2 0x8A0 JUMP JUMPDEST DUP3 MSTORE POP POP JUMP JUMPDEST PUSH0 PUSH1 0x20 DUP3 ADD SWAP1 POP PUSH2 0x8CD PUSH0 DUP4 ADD DUP5 PUSH2 0x8AB JUMP JUMPDEST SWAP3 SWAP2 POP POP JUMP JUMPDEST PUSH2 0x8DC DUP2 PUSH2 0x724 JUMP JUMPDEST DUP3 MSTORE POP POP JUMP JUMPDEST PUSH0 PUSH1 0x20 DUP3 ADD SWAP1 POP PUSH2 0x8F5 PUSH0 DUP4 ADD DUP5 PUSH2 0x8D3 JUMP JUMPDEST SWAP3 SWAP2 POP POP JUMP JUMPDEST PUSH0 DUP2 SWAP1 POP SWAP2 SWAP1 POP JUMP JUMPDEST PUSH2 0x915 PUSH2 0x910 DUP3 PUSH2 0x6D2 JUMP JUMPDEST PUSH2 0x8FB JUMP JUMPDEST DUP3 MSTORE POP POP JUMP JUMPDEST PUSH0 DUP2 PUSH1 0x60 SHL SWAP1 POP SWAP2 SWAP1 POP JUMP JUMPDEST PUSH0 PUSH2 0x931 DUP3 PUSH2 0x91B JUMP JUMPDEST SWAP1 POP SWAP2 SWAP1 POP JUMP JUMPDEST PUSH0 PUSH2 0x942 DUP3 PUSH2 0x927 JUMP JUMPDEST SWAP1 POP SWAP2 SWAP1 POP JUMP JUMPDEST PUSH2 0x95A PUSH2 0x955 DUP3 PUSH2 0x724 JUMP JUMPDEST PUSH2 0x938 JUMP JUMPDEST DUP3 MSTORE POP POP JUMP JUMPDEST PUSH0 PUSH2 0x96B DUP3 DUP7 PUSH2 0x904 JUMP JUMPDEST PUSH1 0x20 DUP3 ADD SWAP2 POP PUSH2 0x97B DUP3 DUP6 PUSH2 0x949 JUMP JUMPDEST PUSH1 0x14 DUP3 ADD SWAP2 POP PUSH2 0x98B DUP3 DUP5 PUSH2 0x904 JUMP JUMPDEST PUSH1 0x20 DUP3 ADD SWAP2 POP DUP2 SWAP1 POP SWAP5 SWAP4 POP POP POP POP JUMP JUMPDEST PUSH2 0x9A5 DUP2 PUSH2 0x6D2 JUMP JUMPDEST DUP3 MSTORE POP POP JUMP JUMPDEST PUSH0 PUSH1 0x60 DUP3 ADD SWAP1 POP PUSH2 0x9BE PUSH0 DUP4 ADD DUP7 PUSH2 0x99C JUMP JUMPDEST PUSH2 0x9CB PUSH1 0x20 DUP4 ADD DUP6 PUSH2 0x8D3 JUMP JUMPDEST PUSH2 0x9D8 PUSH1 0x40 DUP4 ADD DUP5 PUSH2 0x99C JUMP JUMPDEST SWAP5 SWAP4 POP POP POP POP JUMP JUMPDEST PUSH32 0x4E487B7100000000000000000000000000000000000000000000000000000000 PUSH0 MSTORE PUSH1 0x12 PUSH1 0x4 MSTORE PUSH1 0x24 PUSH0 REVERT JUMPDEST PUSH0 PUSH2 0xA17 DUP3 PUSH2 0x6D2 JUMP JUMPDEST SWAP2 POP PUSH2 0xA22 DUP4 PUSH2 0x6D2 JUMP JUMPDEST SWAP3 POP DUP3 PUSH2 0xA32 JUMPI PUSH2 0xA31 PUSH2 0x9E0 JUMP JUMPDEST JUMPDEST DUP3 DUP3 DIV SWAP1 POP SWAP3 SWAP2 POP POP JUMP JUMPDEST PUSH0 PUSH2 0xA47 DUP3 PUSH2 0x6D2 JUMP JUMPDEST SWAP2 POP PUSH2 0xA52 DUP4 PUSH2 0x6D2 JUMP JUMPDEST SWAP3 POP DUP3 PUSH2 0xA62 JUMPI PUSH2 0xA61 PUSH2 0x9E0 JUMP JUMPDEST JUMPDEST DUP3 DUP3 MOD SWAP1 POP SWAP3 SWAP2 POP POP JUMP JUMPDEST PUSH0 PUSH1 0x40 DUP3 ADD SWAP1 POP PUSH2 0xA80 PUSH0 DUP4 ADD DUP6 PUSH2 0x8D3 JUMP JUMPDEST PUSH2 0xA8D PUSH1 0x20 DUP4 ADD DUP5 PUSH2 0x99C JUMP JUMPDEST SWAP4 SWAP3 POP POP POP JUMP JUMPDEST PUSH32 0x4E487B7100000000000000000000000000000000000000000000000000000000 PUSH0 MSTORE PUSH1 0x32 PUSH1 0x4 MSTORE PUSH1 0x24 PUSH0 REVERT JUMPDEST PUSH2 0xACA DUP2 PUSH2 0x8A0 JUMP JUMPDEST DUP2 EQ PUSH2 0xAD4 JUMPI PUSH0 DUP1 REVERT JUMPDEST POP JUMP JUMPDEST PUSH0 DUP2 MLOAD SWAP1 POP PUSH2 0xAE5 DUP2 PUSH2 0xAC1 JUMP JUMPDEST SWAP3 SWAP2 POP POP JUMP JUMPDEST PUSH0 PUSH1 0x20 DUP3 DUP5 SUB SLT ISZERO PUSH2 0xB00 JUMPI PUSH2 0xAFF PUSH2 0x6CA JUMP JUMPDEST JUMPDEST PUSH0 PUSH2 0xB0D DUP5 DUP3 DUP6 ADD PUSH2 0xAD7 JUMP JUMPDEST SWAP2 POP POP SWAP3 SWAP2 POP POP JUMP JUMPDEST PUSH0 DUP2 MLOAD SWAP1 POP SWAP2 SWAP1 POP JUMP JUMPDEST PUSH0 DUP2 SWAP1 POP SWAP3 SWAP2 POP POP JUMP JUMPDEST PUSH0 JUMPDEST DUP4 DUP2 LT ISZERO PUSH2 0xB47 JUMPI DUP1 DUP3 ADD MLOAD DUP2 DUP5 ADD MSTORE PUSH1 0x20 DUP2 ADD SWAP1 POP PUSH2 0xB2C JUMP JUMPDEST PUSH0 DUP5 DUP5 ADD MSTORE POP POP POP POP JUMP JUMPDEST PUSH0 PUSH2 0xB5C DUP3 PUSH2 0xB16 JUMP JUMPDEST PUSH2 0xB66 DUP2 DUP6 PUSH2 0xB20 JUMP JUMPDEST SWAP4 POP PUSH2 0xB76 DUP2 DUP6 PUSH1 0x20 DUP7 ADD PUSH2 0xB2A JUMP JUMPDEST DUP1 DUP5 ADD SWAP2 POP POP SWAP3 SWAP2 POP POP JUMP JUMPDEST PUSH0 PUSH2 0xB8D DUP3 DUP5 PUSH2 0xB52 JUMP JUMPDEST SWAP2 POP DUP2 SWAP1 POP SWAP3 SWAP2 POP POP JUMP INVALID LOG2 PUSH5 0x6970667358 0x22 SLT KECCAK256 0xC1 DUP2 0xE7 EQ 0xAC EXP 0xCA SWAP14 AND DUP1 0xDB 0xE4 SWAP4 CREATE2 0xE7 TSTORE 0x4D BLOBBASEFEE PUSH14 0x3463C91A4224FA83576A38DA8764 PUSH20 0x6F6C634300081800330000000000000000000000 "
				},
				"gasEstimates": {
					"creation": {
						"codeDepositCost": "604400",
						"executionCost": "infinite",
						"totalCost": "infinite"
					},
					"external": {
						"claim(uint256,address,uint256,bytes32[])": "infinite",
						"isClaimed(uint256)": "infinite",
						"merkleRoot()": "infinite",
						"token()": "infinite"
					},
					"internal": {
						"_setClaimed(uint256)": "infinite"
					}
				},
				"methodIdentifiers": {
					"claim(uint256,address,uint256,bytes32[])": "2e7ba6ef",
					"isClaimed(uint256)": "9e34070f",
					"merkleRoot()": "2eb4a7ab",
					"token()": "fc0c546a"
				}
			},
			"storageLayout": {
				"storage": [
					{
						"astId": 1262,
						"contract": "contracts/MerkleDistributor.sol:MerkleDistributor",
						"label": "claimedBitMap",
						"offset": 0,
						"slot": "0",
						"type": "t_mapping(t_uint256,t_uint256)"
					}
				],
				"types": {
					"t_mapping(t_uint256,t_uint256)": {
						"encoding": "mapping",
						"key": "t_uint256",
						"label": "mapping(uint256 => uint256)",
						"numberOfBytes": "32",
						"value": "t_uint256"
					},
					"t_uint256": {
						"encoding": "inplace",
						"label": "uint256",
						"numberOfBytes": "32"
					}
				}
			},
			"userdoc": {
				"kind": "user",
				"methods": {},
				"version": 1
			}
		}
	}
}