{
	"data": {
		"bytecode": {
			"linkReferences": {},
			"object": "60c060405234801562000010575f80fd5b5060405162000d5a38038062000d5a833981810160405281019062000036919062000117565b8173ffffffffffffffffffffffffffffffffffffffff1660808173ffffffffffffffffffffffffffffffffffffffff16815250508060a0818152505050506200015c565b5f80fd5b5f73ffffffffffffffffffffffffffffffffffffffff82169050919050565b5f620000a9826200007e565b9050919050565b620000bb816200009d565b8114620000c6575f80fd5b50565b5f81519050620000d981620000b0565b92915050565b5f819050919050565b620000f381620000df565b8114620000fe575f80fd5b50565b5f815190506200011181620000e8565b92915050565b5f806040838503121562000130576200012f6200007a565b5b5f6200013f85828601620000c9565b9250506020620001528582860162000101565b9150509250929050565b60805160a051610bce6200018c5f395f818161018a015261027e01525f81816101f501526102f10152610bce5ff3fe608060405234801561000f575f80fd5b506004361061004a575f3560e01c80632e7ba6ef1461004e5780632eb4a7ab1461006a5780639e34070f14610088578063fc0c546a146100b8575b5f80fd5b610068600480360381019061006391906107c0565b6100d6565b005b61007261027c565b60405161007f919061085c565b60405180910390f35b6100a2600480360381019061009d9190610875565b6102a0565b6040516100af91906108ba565b60405180910390f35b6100c06102ef565b6040516100cd91906108e2565b60405180910390f35b6100df856102a0565b15610116576040517f646cf55800000000000000000000000000000000000000000000000000000000815260040160405180910390fd5b5f85858560405160200161012c93929190610960565b6040516020818303038152906040528051906020012090506101af8383808060200260200160405190810160405280939291908181526020018383602002808284375f81840152601f19601f820116905080830192505050505050507f000000000000000000000000000000000000000000000000000000000000000083610313565b6101e5576040517f09bde33900000000000000000000000000000000000000000000000000000000815260040160405180910390fd5b6101ee86610329565b61023985857f000000000000000000000000000000000000000000000000000000000000000073ffffffffffffffffffffffffffffffffffffffff1661037b9092919063ffffffff16565b7f4ec90e965519d92681267467f775ada5bd214aa92c0dc93d90a5e880ce9ed02686868660405161026c939291906109ab565b60405180910390a1505050505050565b7f000000000000000000000000000000000000000000000000000000000000000081565b5f80610100836102b09190610a0d565b90505f610100846102c19190610a3d565b90505f805f8481526020019081526020015f205490505f826001901b90508081831614945050505050919050565b7f000000000000000000000000000000000000000000000000000000000000000081565b5f8261031f85846103fa565b1490509392505050565b5f610100826103389190610a0d565b90505f610100836103499190610a3d565b9050806001901b5f808481526020019081526020015f2054175f808481526020019081526020015f2081905550505050565b6103f5838473ffffffffffffffffffffffffffffffffffffffff1663a9059cbb85856040516024016103ae929190610a6d565b604051602081830303815290604052915060e01b6020820180517bffffffffffffffffffffffffffffffffffffffffffffffffffffffff8381831617835250505050610448565b505050565b5f808290505f5b845181101561043d5761042e8286838151811061042157610420610a94565b5b60200260200101516104dd565b91508080600101915050610401565b508091505092915050565b5f610472828473ffffffffffffffffffffffffffffffffffffffff1661050790919063ffffffff16565b90505f8151141580156104965750808060200190518101906104949190610aeb565b155b156104d857826040517f5274afe70000000000000000000000000000000000000000000000000000000081526004016104cf91906108e2565b60405180910390fd5b505050565b5f8183106104f4576104ef828461051c565b6104ff565b6104fe838361051c565b5b905092915050565b606061051483835f610530565b905092915050565b5f825f528160205260405f20905092915050565b60608147101561057757306040517fcd78605900000000000000000000000000000000000000000000000000000000815260040161056e91906108e2565b60405180910390fd5b5f808573ffffffffffffffffffffffffffffffffffffffff16848660405161059f9190610b82565b5f6040518083038185875af1925050503d805f81146105d9576040519150601f19603f3d011682016040523d82523d5f602084013e6105de565b606091505b50915091506105ee8683836105f9565b925050509392505050565b60608261060e5761060982610686565b61067e565b5f825114801561063457505f8473ffffffffffffffffffffffffffffffffffffffff163b145b1561067657836040517f9996b31500000000000000000000000000000000000000000000000000000000815260040161066d91906108e2565b60405180910390fd5b81905061067f565b5b9392505050565b5f815111156106985780518082602001fd5b6040517f1425ea4200000000000000000000000000000000000000000000000000000000815260040160405180910390fd5b5f80fd5b5f80fd5b5f819050919050565b6106e4816106d2565b81146106ee575f80fd5b50565b5f813590506106ff816106db565b92915050565b5f73ffffffffffffffffffffffffffffffffffffffff82169050919050565b5f61072e82610705565b9050919050565b61073e81610724565b8114610748575f80fd5b50565b5f8135905061075981610735565b92915050565b5f80fd5b5f80fd5b5f80fd5b5f8083601f8401126107805761077f61075f565b5b8235905067ffffffffffffffff81111561079d5761079c610763565b5b6020830191508360208202830111156107b9576107b8610767565b5b9250929050565b5f805f805f608086880312156107d9576107d86106ca565b5b5f6107e6888289016106f1565b95505060206107f78882890161074b565b9450506040610808888289016106f1565b935050606086013567ffffffffffffffff811115610829576108286106ce565b5b6108358882890161076b565b92509250509295509295909350565b5f819050919050565b61085681610844565b82525050565b5f60208201905061086f5f83018461084d565b92915050565b5f6020828403121561088a576108896106ca565b5b5f610897848285016106f1565b91505092915050565b5f8115159050919050565b6108b4816108a0565b82525050565b5f6020820190506108cd5f8301846108ab565b92915050565b6108dc81610724565b82525050565b5f6020820190506108f55f8301846108d3565b92915050565b5f819050919050565b610915610910826106d2565b6108fb565b82525050565b5f8160601b9050919050565b5f6109318261091b565b9050919050565b5f61094282610927565b9050919050565b61095a61095582610724565b610938565b82525050565b5f61096b8286610904565b60208201915061097b8285610949565b60148201915061098b8284610904565b602082019150819050949350505050565b6109a5816106d2565b82525050565b5f6060820190506109be5f83018661099c565b6109cb60208301856108d3565b6109d8604083018461099c565b949350505050565b7f4e487b71000000000000000000000000000000000000000000000000000000005f52601260045260245ffd5b5f610a17826106d2565b9150610a22836106d2565b925082610a3257610a316109e0565b5b828204905092915050565b5f610a47826106d2565b9150610a52836106d2565b925082610a6257610a616109e0565b5b828206905092915050565b5f604082019050610a805f8301856108d3565b610a8d602083018461099c565b9392505050565b7f4e487b71000000000000000000000000000000000000000000000000000000005f52603260045260245ffd5b610aca816108a0565b8114610ad4575f80fd5b50565b5f81519050610ae581610ac1565b92915050565b5f60208284031215610b0057610aff6106ca565b5b5f610b0d84828501610ad7565b91505092915050565b5f81519050919050565b5f81905092915050565b5f5b83811015610b47578082015181840152602081019050610b2c565b5f8484015250505050565b5f610b5c82610b16565b610b668185610b20565b9350610b76818560208601610b2a565b80840191505092915050565b5f610b8d8284610b52565b91508190509291505056fea2646970667358221220c181e714ac0aca9d1680dbe493f5e75d4d4a6d3463c91a4224fa83576a38da8764736f6c63430008180033",
			"opcodes": "PUSH1 0xC0 PUSH1 0x40 MSTORE CALLVALUE DUP1 ISZERO PUSH3 0x10 JUMPI PUSH0 DUP1 REVERT JUMPDEST POP PUSH1 0x40 MLOAD PUSH3 0xD5A CODESIZE SUB DUP1 PUSH3 0xD5A DUP4 CODECOPY DUP2 DUP2 ADD PUSH1 0x40 MSTORE DUP2 ADD SWAP1 PUSH3 0x36 SWAP2 SWAP1 PUSH3 0x117 JUMP JUMPDEST DUP2 PUSH20 0xFFFFFFFFFFFFFFFFFFFFFFFFFFFFFFFFFFFFFFFF AND PUSH1 0x80 DUP2 PUSH20 0xFFFFFFFFFFFFFFFFFFFFFFFFFFFFFFFFFFFFFFFF AND DUP2 MSTORE POP POP DUP1 PUSH1 0xA0 DUP2 DUP2 MSTORE POP POP POP POP PUSH3 0x15C JUMP JUMPDEST PUSH0 DUP1 REVERT JUMPDEST PUSH0 PUSH20 0xFFFFFFFFFFFFFFFFFFFFFFFFFFFFFFFFFFFFFFFF DUP3 AND SWAP1 POP SWAP2 SWAP1 POP JUMP JUMPDEST PUSH0 PUSH3 0xA9 DUP3 PUSH3 0x7E JUMP JUMPDEST SWAP1 POP SWAP2 SWAP1 POP JUMP JUMPDEST PUSH3 0xBB DUP2 PUSH3 0x9D JUMP JUMPDEST DUP2 EQ PUSH3 0xC6 JUMPI PUSH0 DUP1 REVERT JUMPDEST POP JUMP JUMPDEST PUSH0 DUP2 MLOAD SWAP1 POP PUSH3 0xD9 DUP2 PUSH3 0xB0 JUMP JUMPDEST SWAP3 SWAP2 POP POP JUMP JUMPDEST PUSH0 DUP2 SWAP1 POP SWAP2 SWAP1 POP JUMP JUMPDEST PUSH3 0xF3 DUP2 PUSH3 0xDF JUMP JUMPDEST DUP2 EQ PUSH3 0xFE JUMPI PUSH0 DUP1 REVERT JUMPDEST POP JUMP JUMPDEST PUSH0 DUP2 MLOAD SWAP1 POP PUSH3 0x111 DUP2 PUSH3 0xE8 JUMP JUMPDEST SWAP3 SWAP2 POP POP JUMP JUMPDEST PUSH0 DUP1 PUSH1 0x40 DUP4 DUP6 SUB SLT ISZERO PUSH3 0x130 JUMPI PUSH3 0x12F PUSH3 0x7A JUMP JUMPDEST JUMPDEST PUSH0 PUSH3 0x13F DUP6 DUP3 DUP7 ADD PUSH3 0xC9 JUMP JUMPDEST SWAP3 POP POP PUSH1 0x20 PUSH3 0x152 DUP6 DUP3 DUP7 ADD PUSH3 0x101 JUMP JUMPDEST SWAP2 POP POP SWAP3 POP SWAP3 SWAP1 POP JUMP JUMPDEST PUSH1 0x80 MLOAD PUSH1 0xA0 MLOAD PUSH2 0xBCE PUSH3 0x18C PUSH0 CODECOPY PUSH0 DUP2 DUP2 PUSH2 0x18A ADD MSTORE PUSH2 0x27E ADD MSTORE PUSH0 DUP2 DUP2 PUSH2 0x1F5 ADD MSTORE PUSH2 0x2F1 ADD MSTORE PUSH2 0xBCE PUSH0 RETURN INVALID PUSH1 0x80 PUSH1 0x40 MSTORE CALLVALUE DUP1 ISZERO PUSH2 0xF JUMPI PUSH0 DUP1 REVERT JUMPDEST POP PUSH1 0x4 CALLDATASIZE LT PUSH2 0x4A JUMPI PUSH0 CALLDATALOAD PUSH1 0xE0 SHR DUP1 PUSH4 0x2E7BA6EF EQ PUSH2 0x4E JUMPI DUP1 PUSH4 0x2EB4A7AB EQ PUSH2 0x6A JUMPI DUP1 PUSH4 0x9E34070F EQ PUSH2 0x88 JUMPI DUP1 PUSH4 0xFC0C546A EQ PUSH2 0xB8 JUMPI JUMPDEST PUSH0 DUP1 REVERT JUMPDEST PUSH2 0x68 PUSH1 0x4 DUP1 CALLDATASIZE SUB DUP2 ADD SWAP1 PUSH2 0x63 SWAP2 SWAP1 PUSH2 0x7C0 JUMP JUMPDEST PUSH2 0xD6 JUMP JUMPDEST STOP JUMPDEST PUSH2 0x72 PUSH2 0x27C JUMP JUMPDEST PUSH1 0x40 MLOAD PUSH2 0x7F SWAP2 SWAP1 PUSH2 0x85C JUMP JUMPDEST PUSH1 0x40 MLOAD DUP1 SWAP2 SUB SWAP1 RETURN JUMPDEST PUSH2 0xA2 PUSH1 0x4 DUP1 CALLDATASIZE SUB DUP2 ADD SWAP1 PUSH2 0x9D SWAP2 SWAP1 PUSH2 0x875 JUMP JUMPDEST PUSH2 0x2A0 JUMP JUMPDEST PUSH1 0x40 MLOAD PUSH2 0xAF SWAP2 SWAP1 PUSH2 0x8BA JUMP JUMPDEST PUSH1 0x40 MLOAD DUP1 SWAP2 SUB SWAP1 RETURN JUMPDEST PUSH2 0xC0 PUSH2 0x2EF JUMP JUMPDEST PUSH1 0x40 MLOAD PUSH2 0xCD SWAP2 SWAP1 PUSH2 0x8E2 JUMP JUMPDEST PUSH1 0x40 MLOAD DUP1 SWAP2 SUB SWAP1 RETURN JUMPDEST PUSH2 0xDF DUP6 PUSH2 0x2A0 JUMP JUMPDEST ISZERO PUSH2 0x116 JUMPI PUSH1 0x40 MLOAD PUSH32 0x646CF55800000000000000000000000000000000000000000000000000000000 DUP2 MSTORE PUSH1 0x4 ADD PUSH1 0x40 MLOAD DUP1 SWAP2 SUB SWAP1 REVERT JUMPDEST PUSH0 DUP6 DUP6 DUP6 PUSH1 0x40 MLOAD PUSH1 0x20 ADD PUSH2 0x12C SWAP4 SWAP3 SWAP2 SWAP1 PUSH2 0x960 JUMP JUMPDEST PUSH1 0x40 MLOAD PUSH1 0x20 DUP2 DUP4 SUB SUB DUP2 MSTORE SWAP1 PUSH1 0x40 MSTORE DUP1 MLOAD SWAP1 PUSH1 0x20 ADD KECCAK256 SWAP1 POP PUSH2 0x1AF DUP4 DUP4 DUP1 DUP1 PUSH1 0x20 MUL PUSH1 0x20 ADD PUSH1 0x40 MLOAD SWAP1 DUP2 ADD PUSH1 0x40 MSTORE DUP1 SWAP4 SWAP3 SWAP2 SWAP1 DUP2 DUP2 MSTORE PUSH1 0x20 ADD DUP4 DUP4 PUSH1 0x20 MUL DUP1 DUP3 DUP5 CALLDATACOPY PUSH0 DUP2 DUP5 ADD MSTORE PUSH1 0x1F NOT PUSH1 0x1F DUP3 ADD AND SWAP1 POP DUP1 DUP4 ADD SWAP3 POP POP POP POP POP POP POP PUSH32 0x0 DUP4 PUSH2 0x313 JUMP JUMPDEST PUSH2 0x1E5 JUMPI PUSH1 0x40 MLOAD PUSH32 0x9BDE33900000000000000000000000000000000000000000000000000000000 DUP2 MSTORE PUSH1 0x4 ADD PUSH1 0x40 MLOAD DUP1 SWAP2 SUB SWAP1 REVERT JUMPDEST PUSH2 0x1EE DUP7 PUSH2 0x329 JUMP JUMPDEST PUSH2 0x239 DUP6 DUP6 PUSH32 0x0 PUSH20 0xFFFFFFFFFFFFFFFFFFFFFFFFFFFFFFFFFFFFFFFF AND PUSH2 0x37B SWAP1 SWAP3 SWAP2 SWAP1 PUSH4 0xFFFFFFFF AND JUMP JUMPDEST PUSH32 0x4EC90E965519D92681267467F775ADA5BD214AA92C0DC93D90A5E880CE9ED026 DUP7 DUP7 DUP7 PUSH1 0x40 MLOAD PUSH2 0x26C SWAP4 SWAP3 SWAP2 SWAP1 PUSH2 0x9AB JUMP JUMPDEST PUSH1 0x40 MLOAD DUP1 SWAP2 SUB SWAP1 LOG1 POP POP POP POP POP POP JUMP JUMPDEST PUSH32 0x0 DUP2 JUMP JUMPDEST PUSH0 DUP1 PUSH2 0x100 DUP4 PUSH2 0x2B0 SWAP2 SWAP1 PUSH2 0xA0D JUMP JUMPDEST SWAP1 POP PUSH0 PUSH2 0x100 DUP5 PUSH2 0x2C1 SWAP2 SWAP1 PUSH2 0xA3D JUMP JUMPDEST SWAP1 POP PUSH0 DUP1 PUSH0 DUP5 DUP2 MSTORE PUSH1 0x20 ADD SWAP1 DUP2 MSTORE PUSH1 0x20 ADD PUSH0 KECCAK256 SLOAD SWAP1 POP PUSH0 DUP3 PUSH1 0x1 SWAP1 SHL SWAP1 POP DUP1 DUP2 DUP4 AND EQ SWAP5 POP POP POP POP POP SWAP2 SWAP1 POP JUMP JUMPDEST PUSH32 0x0 DUP2 JUMP JUMPDEST PUSH0 DUP3 PUSH2 0x31F DUP6 DUP5 PUSH2 0x3FA JUMP JUMPDEST EQ SWAP1 POP SWAP4 SWAP3 POP POP POP JUMP JUMPDEST PUSH0 PUSH2 0x100 DUP3 PUSH2 0x338 SWAP2 SWAP1 PUSH2 0xA0D JUMP JUMPDEST SWAP1 POP PUSH0 PUSH2 0x100 DUP4 PUSH2 0x349 SWAP2 SWAP1 PUSH2 0xA3D JUMP JUMPDEST SWAP1 POP DUP1 PUSH1 0x1 SWAP1 SHL PUSH0 DUP1 DUP5 DUP2 MSTORE PUSH1 0x20 ADD SWAP1 DUP2 MSTORE PUSH1 0x20 ADD PUSH0 KECCAK256 SLOAD OR PUSH0 DUP1 DUP5 DUP2 MSTORE PUSH1 0x20 ADD SWAP1 DUP2 MSTORE PUSH1 0x20 ADD PUSH0 KECCAK256 DUP2 SWAP1 SSTORE POP POP POP POP JUMP JUMPDEST PUSH2 0x3F5 DUP4 DUP5 PUSH20 0xFFFFFFFFFFFFFFFFFFFFFFFFFFFFFFFFFFFFFFFF AND PUSH4 0xA9059CBB DUP6 DUP6 PUSH1 0x40 MLOAD PUSH1 0x24 ADD PUSH2 0x3AE SWAP3 SWAP2 SWAP1 PUSH2 0xA6D JUMP JUMPDEST PUSH1 0x40 MLOAD PUSH1 0x20 DUP2 DUP4 SUB SUB DUP2 MSTORE SWAP1 PUSH1 0x40 MSTORE SWAP2 POP PUSH1 0xE0 SHL PUSH1 0x20 DUP3 ADD DUP1 MLOAD PUSH28 0xFFFFFFFFFFFFFFFFFFFFFFFFFFFFFFFFFFFFFFFFFFFFFFFFFFFFFFFF DUP4 DUP2 DUP4 AND OR DUP4 MSTORE POP POP POP POP PUSH2 0x448 JUMP JUMPDEST POP POP POP JUMP JUMPDEST PUSH0 DUP1 DUP3 SWAP1 POP PUSH0 JUMPDEST DUP5 MLOAD DUP2 LT ISZERO PUSH2 0x43D JUMPI PUSH2 0x42E DUP3 DUP7 DUP4 DUP2 MLOAD DUP2 LT PUSH2 0x421 JUMPI PUSH2 0x420 PUSH2 0xA94 JUMP JUMPDEST JUMPDEST PUSH1 0x20 MUL PUSH1 0x20 ADD ADD MLOAD PUSH2 0x4DD JUMP JUMPDEST SWAP2 POP DUP1 DUP1 PUSH1 0x1 ADD SWAP2 POP POP PUSH2 0x401 JUMP JUMPDEST POP DUP1 SWAP2 POP POP SWAP3 SWAP2 POP POP JUMP JUMPDEST PUSH0 PUSH2 0x472 DUP3 DUP5 PUSH20 0xFFFFFFFFFFFFFFFFFFFFFFFFFFFFFFFFFFFFFFFF AND PUSH2 0x507 SWAP1 SWAP2 SWAP1 PUSH4 0xFFFFFFFF AND JUMP JUMPDEST SWAP1 POP PUSH0 DUP2 MLOAD EQ ISZERO DUP1 ISZERO PUSH2 0x496 JUMPI POP DUP1 DUP1 PUSH1 0x20 ADD SWAP1 MLOAD DUP2 ADD SWAP1 PUSH2 0x494 SWAP2 SWAP1 PUSH2 0xAEB JUMP JUMPDEST ISZERO JUMPDEST ISZERO PUSH2 0x4D8 JUMPI DUP3 PUSH1 0x40 MLOAD PUSH32 0x5274AFE700000000000000000000000000000000000000000000000000000000 DUP2 MSTORE PUSH1 0x4 ADD PUSH2 0x4CF SWAP2 SWAP1 PUSH2 0x8E2 JUMP JUMPDEST PUSH1 0x40 MLOAD DUP1 SWAP2 SUB SWAP1 REVERT JUMPDEST POP POP POP JUMP JUMPDEST PUSH0 DUP2 DUP4 LT PUSH2 0x4F4 JUMPI PUSH2 0x4EF DUP3 DUP5 PUSH2 0x51C JUMP JUMPDEST PUSH2 0x4FF JUMP JUMPDEST PUSH2 0x4FE DUP4 DUP4 PUSH2 0x51C JUMP JUMPDEST JUMPDEST SWAP1 POP SWAP3 SWAP2 POP POP JUMP JUMPDEST PUSH1 0x60 PUSH2 0x514 DUP4 DUP4 PUSH0 PUSH2 0x530 JUMP JUMPDEST SWAP1 POP SWAP3 SWAP2 POP POP JUMP JUMPDEST PUSH0 DUP3 PUSH0 MSTORE DUP2 PUSH1 0x20 MSTORE PUSH1 0x40 PUSH0 KECCAK256 SWAP1 POP SWAP3 SWAP2 POP POP JUMP JUMPDEST PUSH1 0x60 DUP2 SELFBALANCE LT ISZERO PUSH2 0x577 JUMPI ADDRESS PUSH1 0x40 MLOAD PUSH32 0xCD78605900000000000000000000000000000000000000000000000000000000 DUP2 MSTORE PUSH1 0x4 ADD PUSH2 0x56E SWAP2 SWAP1 PUSH2 0x8E2 JUMP JUMPDEST PUSH1 0x40 MLOAD DUP1 SWAP2 SUB SWAP1 REVERT JUMPDEST PUSH0 DUP1 DUP6 PUSH20 0xFFFFFFFFFFFFFFFFFFFFFFFFFFFFFFFFFFFFFFFF AND DUP5 DUP7 PUSH1 0x40 MLOAD PUSH2 0x59F SWAP2 SWAP1 PUSH2 0xB82 JUMP JUMPDEST PUSH0 PUSH1 0x40 MLOAD DUP1 DUP4 SUB DUP2 DUP6 DUP8 GAS CALL SWAP3 POP POP POP RETURNDATASIZE DUP1 PUSH0 DUP2 EQ PUSH2 0x5D9 JUMPI PUSH1 0x40 MLOAD SWAP2 POP PUSH1 0x1F NOT PUSH1 0x3F RETURNDATASIZE ADD AND DUP3 ADD PUSH1 0x40 MSTORE RETURNDATASIZE DUP3 MSTORE RETURNDATASIZE PUSH0 PUSH1 0x20 DUP5 ADD RETURNDATACOPY PUSH2 0x5DE JUMP JUMPDEST PUSH1 0x60 SWAP2 POP JUMPDEST POP SWAP2 POP SWAP2 POP PUSH2 0x5EE DUP7 DUP4 DUP4 PUSH2 0x5F9 JUMP JUMPDEST SWAP3 POP POP POP SWAP4 SWAP3 POP POP POP JUMP JUMPDEST PUSH1 0x60 DUP3 PUSH2 0x60E JUMPI PUSH2 0x609 DUP3 PUSH2 0x686 JUMP JUMPDEST PUSH2 0x67E JUMP JUMPDEST PUSH0 DUP3 MLOAD EQ DUP1 ISZERO PUSH2 0x634 JUMPI POP PUSH0 DUP5 PUSH20 0xFFFFFFFFFFFFFFFFFFFFFFFFFFFFFFFFFFFFFFFF AND EXTCODESIZE EQ JUMPDEST ISZERO PUSH2 0x676 JUMPI DUP4 PUSH1 0x40 MLOAD PUSH32 0x9996B31500000000000000000000000000000000000000000000000000000000 DUP2 MSTORE PUSH1 0x4 ADD PUSH2 0x66D SWAP2 SWAP1 PUSH2 0x8E2 JUMP JUMPDEST PUSH1 0x40 MLOAD DUP1 SWAP2 SUB SWAP1 REVERT JUMPDEST DUP2 SWAP1 POP PUSH2 0x67F JUMP JUMPDEST JUMPDEST SWAP4 SWAP3 POP POP POP JUMP JUMPDEST PUSH0 DUP2 MLOAD GT ISZERO PUSH2 0x698 JUMPI DUP1 MLOAD DUP1 DUP3 PUSH1 0x20 ADD REVERT JUMPDEST PUSH1 0x40 MLOAD PUSH32 0x1425EA4200000000000000000000000000000000000000000000000000000000 DUP2 MSTORE PUSH1 0x4 ADD PUSH1 0x40 MLOAD DUP1 SWAP2 SUB SWAP1 REVERT JUMPDEST PUSH0 DUP1 REVERT JUMPDEST PUSH0 DUP1 REVERT JUMPDEST PUSH0 DUP2 SWAP1 POP SWAP2 SWAP1 POP JUMP JUMPDEST PUSH2 0x6E4 DUP2 PUSH2 0x6D2 JUMP JUMPDEST DUP2 EQ PUSH2 0x6EE JUMPI PUSH0 DUP1 REVERT JUMPDEST POP JUMP JUMPDEST PUSH0 DUP2 CALLDATALOAD SWAP1 POP PUSH2 0x6FF DUP2 PUSH2 0x6DB JUMP JUMPDEST SWAP3 SWAP2 POP POP JUMP JUMPDEST PUSH0 PUSH20 0xFFFFFFFFFFFFFFFFFFFFFFFFFFFFFFFFFFFFFFFF DUP3 AND SWAP1 POP SWAP2 SWAP1 POP JUMP JUMPDEST PUSH0 PUSH2 0x72E DUP3 PUSH2 0x705 JUMP JUMPDEST SWAP1 POP SWAP2 SWAP1 POP JUMP JUMPDEST PUSH2 0x73E DUP2 PUSH2 0x724 JUMP JUMPDEST DUP2 EQ PUSH2 0x748 JUMPI PUSH0 DUP1 REVERT JUMPDEST POP JUMP JUMPDEST PUSH0 DUP2 CALLDATALOAD SWAP1 POP PUSH2 0x759 DUP2 PUSH2 0x735 JUMP JUMPDEST SWAP3 SWAP2 POP POP JUMP JUMPDEST PUSH0 DUP1 REVERT JUMPDEST PUSH0 DUP1 REVERT JUMPDEST PUSH0 DUP1 REVERT JUMPDEST PUSH0 DUP1 DUP4 PUSH1 0x1F DUP5 ADD SLT PUSH2 0x780 JUMPI PUSH2 0x77F PUSH2 0x75F JUMP JUMPDEST JUMPDEST DUP3 CALLDATALOAD SWAP1 POP PUSH8 0xFFFFFFFFFFFFFFFF DUP2 GT ISZERO PUSH2 0x79D JUMPI PUSH2 0x79C PUSH2 0x763 JUMP JUMPDEST JUMPDEST PUSH1 0x20 DUP4 ADD SWAP2 POP DUP4 PUSH1 0x20 DUP3 MUL DUP4 ADD GT ISZERO PUSH2 0x7B9 JUMPI PUSH2 0x7B8 PUSH2 0x767 JUMP JUMPDEST JUMPDEST SWAP3 POP SWAP3 SWAP1 POP JUMP JUMPDEST PUSH0 DUP1 PUSH0 DUP1 PUSH0 PUSH1 0x80 DUP7 DUP9 SUB SLT ISZERO PUSH2 0x7D9 JUMPI PUSH2 0x7D8 PUSH2 0x6CA JUMP JUMPDEST JUMPDEST PUSH0 PUSH2 0x7E6 DUP9 DUP3 DUP10 ADD PUSH2 0x6F1 JUMP JUMPDEST SWAP6 POP POP PUSH1 0x20 PUSH2 0x7F7 DUP9 DUP3 DUP10 ADD PUSH2 0x74B JUMP JUMPDEST SWAP5 POP POP PUSH1 0x40 PUSH2 0x808 DUP9 DUP3 DUP10 ADD PUSH2 0x6F1 JUMP JUMPDEST SWAP4 POP POP PUSH1 0x60 DUP7 ADD CALLDATALOAD PUSH8 0xFFFFFFFFFFFFFFFF DUP2 GT ISZERO PUSH2 0x829 JUMPI PUSH2 0x828 PUSH2 0x6CE JUMP JUMPDEST JUMPDEST PUSH2 0x835 DUP9 DUP3 DUP10 ADD PUSH2 0x76B JUMP JUMPDEST SWAP3 POP SWAP3 POP POP SWAP3 SWAP6 POP SWAP3 SWAP6 SWAP1 SWAP4 POP JUMP JUMPDEST PUSH0 DUP2 SWAP1 POP SWAP2 SWAP1 POP JUMP JUMPDEST PUSH2 0x856 DUP2 PUSH2 0x844 JUMP JUMPDEST DUP3 MSTORE POP POP JUMP JUMPDEST PUSH0 PUSH1 0x20 DUP3 ADD SWAP1 POP PUSH2 0x86F PUSH0 DUP4 ADD DUP5 PUSH2 0x84D JUMP JUMPDEST SWAP3 SWAP2 POP POP JUMP JUMPDEST PUSH0 PUSH1 0x20 DUP3 DUP5 SUB SLT ISZERO PUSH2 0x88A JUMPI PUSH2 0x889 PUSH2 0x6CA JUMP JUMPDEST JUMPDEST PUSH0 PUSH2 0x897 DUP5 DUP3 DUP6 ADD PUSH2 0x6F1 JUMP JUMPDEST SWAP2 POP POP SWAP3 SWAP2 POP POP JUMP JUMPDEST PUSH0 DUP2 ISZERO ISZERO SWAP1 POP SWAP2 SWAP1 POP JUMP JUMPDEST PUSH2 0x8B4 DUP2 PUSH2 0x8A0 JUMP JUMPDEST DUP3 MSTORE POP POP JUMP JUMPDEST PUSH0 PUSH1 0x20 DUP3 ADD SWAP1 POP PUSH2 0x8CD PUSH0 DUP4 ADD DUP5 PUSH2 0x8AB JUMP JUMPDEST SWAP3 SWAP2 POP POP JUMP JUMPDEST PUSH2 0x8DC DUP2 PUSH2 0x724 JUMP JUMPDEST DUP3 MSTORE POP POP JUMP JUMPDEST PUSH0 PUSH1 0x20 DUP3 ADD SWAP1 POP PUSH2 0x8F5 PUSH0 DUP4 ADD DUP5 PUSH2 0x8D3 JUMP JUMPDEST SWAP3 SWAP2 POP POP JUMP JUMPDEST PUSH0 DUP2 SWAP1 POP SWAP2 SWAP1 POP JUMP JUMPDEST PUSH2 0x915 PUSH2 0x910 DUP3 PUSH2 0x6D2 JUMP JUMPDEST PUSH2 0x8FB JUMP JUMPDEST DUP3 MSTORE POP POP JUMP JUMPDEST PUSH0 DUP2 PUSH1 0x60 SHL SWAP1 POP SWAP2 SWAP1 POP JUMP JUMPDEST PUSH0 PUSH2 0x931 DUP3 PUSH2 0x91B JUMP JUMPDEST SWAP1 POP SWAP2 SWAP1 POP JUMP JUMPDEST PUSH0 PUSH2 0x942 DUP3 PUSH2 0x927 JUMP JUMPDEST SWAP1 POP SWAP2 SWAP1 POP JUMP JUMPDEST PUSH2 0x95A PUSH2 0x955 DUP3 PUSH2 0x724 JUMP JUMPDEST PUSH2 0x938 JUMP JUMPDEST DUP3 MSTORE POP POP JUMP JUMPDEST PUSH0 PUSH2 0x96B DUP3 DUP7 PUSH2 0x904 JUMP JUMPDEST PUSH1 0x20 DUP3 ADD SWAP2 POP PUSH2 0x97B DUP3 DUP6 PUSH2 0x949 JUMP JUMPDEST PUSH1 0x14 DUP3 ADD SWAP2 POP PUSH2 0x98B DUP3 DUP5 PUSH2 0x904 JUMP JUMPDEST PUSH1 0x20 DUP3 ADD SWAP2 POP DUP2 SWAP1 POP SWAP5 SWAP4 POP POP POP POP JUMP JUMPDEST PUSH2 0x9A5 DUP2 PUSH2 0x6D2 JUMP JUMPDEST DUP3 MSTORE POP POP JUMP JUMPDEST PUSH0 PUSH1 0x60 DUP3 ADD SWAP1 POP PUSH2 0x9BE PUSH0 DUP4 ADD DUP7 PUSH2 0x99C JUMP JUMPDEST PUSH2 0x9CB PUSH1 0x20 DUP4 ADD DUP6 PUSH2 0x8D3 JUMP JUMPDEST PUSH2 0x9D8 PUSH1 0x40 DUP4 ADD DUP5 PUSH2 0x99C JUMP JUMPDEST SWAP5 SWAP4 POP POP POP POP JUMP JUMPDEST PUSH32 0x4E487B7100000000000000000000000000000000000000000000000000000000 PUSH0 MSTORE PUSH1 0x12 PUSH1 0x4 MSTORE PUSH1 0x24 PUSH0 REVERT JUMPDEST PUSH0 PUSH2 0xA17 DUP3 PUSH2 0x6D2 JUMP JUMPDEST SWAP2 POP PUSH2 0xA22 DUP4 PUSH2 0x6D2 JUMP JUMPDEST SWAP3 POP DUP3 PUSH2 0xA32 JUMPI PUSH2 0xA31 PUSH2 0x9E0 JUMP JUMPDEST JUMPDEST DUP3 DUP3 DIV SWAP1 POP SWAP3 SWAP2 POP POP JUMP JUMPDEST PUSH0 PUSH2 0xA47 DUP3 PUSH2 0x6D2 JUMP JUMPDEST SWAP2 POP PUSH2 0xA52 DUP4 PUSH2 0x6D2 JUMP JUMPDEST SWAP3 POP DUP3 PUSH2 0xA62 JUMPI PUSH2 0xA61 PUSH2 0x9E0 JUMP JUMPDEST JUMPDEST DUP3 DUP3 MOD SWAP1 POP SWAP3 SWAP2 POP POP JUMP JUMPDEST PUSH0 PUSH1 0x40 DUP3 ADD SWAP1 POP PUSH2 0xA80 PUSH0 DUP4 ADD DUP6 PUSH2 0x8D3 JUMP JUMPDEST PUSH2 0xA8D PUSH1 0x20 DUP4 ADD DUP5 PUSH2 0x99C JUMP JUMPDEST SWAP4 SWAP3 POP POP POP JUMP JUMPDEST PUSH32 0x4E487B7100000000000000000000000000000000000000000000000000000000 PUSH0 MSTORE PUSH1 0x32 PUSH1 0x4 MSTORE PUSH1 0x24 PUSH0 REVERT JUMPDEST PUSH2 0xACA DUP2 PUSH2 0x8A0 JUMP JUMPDEST DUP2 EQ PUSH2 0xAD4 JUMPI PUSH0 DUP1 REVERT JUMPDEST POP JUMP JUMPDEST PUSH0 DUP2 MLOAD SWAP1 POP PUSH2 0xAE5 DUP2 PUSH2 0xAC1 JUMP JUMPDEST SWAP3 SWAP2 POP POP JUMP JUMPDEST PUSH0 PUSH1 0x20 DUP3 DUP5 SUB SLT ISZERO PUSH2 0xB00 JUMPI PUSH2 0xAFF PUSH2 0x6CA JUMP JUMPDEST JUMPDEST PUSH0 PUSH2 0xB0D DUP5 DUP3 DUP6 ADD PUSH2 0xAD7 JUMP JUMPDEST SWAP2 POP POP SWAP3 SWAP2 POP POP JUMP JUMPDEST PUSH0 DUP2 MLOAD SWAP1 POP SWAP2 SWAP1 POP JUMP JUMPDEST PUSH0 DUP2 SWAP1 POP SWAP3 SWAP2 POP POP JUMP JUMPDEST PUSH0 JUMPDEST DUP4 DUP2 LT ISZERO PUSH2 0xB47 JUMPI DUP1 DUP3 ADD MLOAD DUP2 DUP5 ADD MSTORE PUSH1 0x20 DUP2 ADD SWAP1 POP PUSH2 0xB2C JUMP JUMPDEST PUSH0 DUP5 DUP5 ADD MSTORE POP POP POP POP JUMP JUMPDEST PUSH0 PUSH2 0xB5C DUP3 PUSH2 0xB16 JUMP JUMPDEST PUSH2 0xB66 DUP2 DUP6 PUSH2 0xB20 JUMP JUMPDEST SWAP4 POP PUSH2 0xB76 DUP2 DUP6 PUSH1 0x20 DUP7 ADD PUSH2 0xB2A JUMP JUMPDEST DUP1 DUP5 ADD SWAP2 POP POP SWAP3 SWAP2 POP POP JUMP JUMPDEST PUSH0 PUSH2 0xB8D DUP3 DUP5 PUSH2 0xB52 JUMP JUMPDEST SWAP2 POP DUP2 SWAP1 POP SWAP3 SWAP2 POP POP JUMP INVALID LOG2 PUSH5 0x6970667358 0x22 SLT KECCAK256 0xC1 DUP2 0xE7 EQ 0xAC EXP 0xCA SWAP14 AND DUP1 0xDB 0xE4 SWAP4 CREATE2 0xE7 TSTORE 0x4D BLOBBASEFEE PUSH14 0x3463C91A4224FA83576A38DA8764 PUSH20 0x6F6C634300081800330000000000000000000000 "
		},
		"gasEstimates": {
			"creation": {
				"codeDepositCost": "604400",
				"executionCost": "infinite",
				"totalCost": "infinite"
			},
			"external": {
				"claim(uint256,address,uint256,bytes32[])": "infinite",
				"isClaimed(uint256)": "infinite",
				"merkleRoot()": "infinite",
				"token()": "infinite"
			},
			"internal": {
				"_setClaimed(uint256)": "infinite"
			}
		},
		"methodIdentifiers": {
			"claim(uint256,address,uint256,bytes32[])": "2e7ba6ef",
			"isClaimed(uint256)": "9e34070f",
			"merkleRoot()": "2eb4a7ab",
			"token()": "fc0c546a"
		}
	},
	"abi": [
		{
			"inputs": [
				{
					"internalType": "address",
					"name": "token_",
					"type": "address"
				},
				{
					"internalType": "bytes32",
					"name": "merkleRoot_",
					"type": "bytes32"
				}
			],
			"stateMutability": "nonpayable",
			"type": "constructor"
		},
		{
			"inputs": [
				{
					"internalType": "address",
					"name": "target",
					"type": "address"
				}
			],
			"name": "AddressEmptyCode",
			"type": "error"
		},
		{
			"inputs": [
				{
					"internalType": "address",
					"name": "account",
					"type": "address"
				}
			],
			"name": "AddressInsufficientBalance",
			"type": "error"
		},
		{
			"inputs": [],
			"name": "AlreadyClaimed",
			"type": "error"
		},
		{
			"inputs": [],
			"name": "FailedInnerCall",
			"type": "error"
		},
		{
			"inputs": [],
			"name": "InvalidProof",
			"type": "error"
		},
		{
			"inputs": [
				{
					"internalType": "address",
					"name": "token",
					"type": "address"
				}
			],
			"name": "SafeERC20FailedOperation",
			"type": "error"
		},
		{
			"anonymous": false,
			"inputs": [
				{
					"indexed": false,
					"internalType": "uint256",
					"name": "index",
					"type": "uint256"
				},
				{
					"indexed": false,
					"internalType": "address",
					"name": "account",
					"type": "address"
				},
				{
					"indexed": false,
					"internalType": "uint256",
					"name": "amount",
					"type": "uint256"
				}
			],
			"name": "Claimed",
			"type": "event"
		},
		{
			"inputs": [
				{
					"internalType": "uint256",
					"name": "index",
					"type": "uint256"
				},
				{
					"internalType": "address",
					"name": "account",
					"type": "address"
				},
				{
					"internalType": "uint256",
					"name": "amount",
					"type": "uint256"
				},
				{
					"internalType": "bytes32[]",
					"name": "merkleProof",
					"type": "bytes32[]"
				}
			],
			"name": "claim",
			"outputs": [],
			"stateMutability": "nonpayable",
			"type": "function"
		},
		{
			"inputs": [
				{
					"internalType": "uint256",
					"name": "index",
					"type": "uint256"
				}
			],
			"name": "isClaimed",
			"outputs": [
				{
					"internalType": "bool",
					"name": "",
					"type": "bool"
				}
			],
			"stateMutability": "view",
			"type": "function"
		},
		{
			"inputs": [],
			"name": "merkleRoot",
			"outputs": [
				{
					"internalType": "bytes32",
					"name": "",
					"type": "bytes32"
				}
			],
			"stateMutability": "view",
			"type": "function"
		},
		{
			"inputs": [],
			"name": "token",
			"outputs": [
				{
					"internalType": "address",
					"name": "",
					"type": "address"
				}
			],
			"stateMutability": "view",
			"type": "function"
		}
	]
}